:020000040800F2
:1000000070F2012061020008FB250008F7250008B6
:10001000F92500082F060008792A000800000000D2
:10002000000000000000000000000000A101000826
:100030003106000800000000FD0100084926000804
:100040007B0200087B0200087B0200087B0200089C
:100050007B0200087B0200087B0200087B0200088C
:100060007B0200087B0200087B0200087B0200087C
:100070007B0200087B0200087B0200087B0200086C
:100080007B0200087B0200087B0200087B0200085C
:100090007B0200087B0200087B0200087B0200084C
:1000A0007B0200087B0200087B0200087B0200083C
:1000B0007B0200087B020008712600087B02000812
:1000C0007B0200087B0200087B0200087B0200081C
:1000D0007B0200086D2A00087B0200087B020008F2
:1000E0007B0200087B0200087B0200087B020008FC
:1000F0007B0200087B0200087B0200087B020008EC
:100100007B0200087B0200087B0200087B020008DB
:100110007B0200087B0200087B0200087B020008CB
:100120007B0200087B0200087B0200087B020008BB
:100130007B020008250700087B0200087B020008FC
:100140007B0200087B0200087B0200087B0200089B
:100150007B0200087B0200087B0200087B0200088B
:100160007B0200087B0200087B0200087B0200087B
:100170007B0200087B0200087B02000800000000F0
:100180007B0200087B020008DFF810D000F012FAB2
:100190000048004745A70008AFF3008070F2012037
:1001A0002C4B19680868B0E8F04F80F30988BFF35A
:1001B0006F8F4FF0000080F311887047000000003F
:1001C00008480068006880F308884FF0000080F35A
:1001D000148862B661B6BFF34F8FBFF36F8F00DF35
:1001E00000BF00BF08ED00E0DFF80C00016841F43B
:1001F00070010160704700BF88ED00E0EFF30980F7
:10020000BFF36F8F134B1A681EF0100F08BF20ED5D
:10021000108A20E9F04F106009B44FF0500080F3CD
:100220001188BFF34F8FBFF36F8F14F0CFF84FF0EB
:10023000000080F3118809BC19680868B0E8F04F25
:100240001EF0100F08BFB0EC108A80F30988BFF3CE
:100250006F8F704790020020EFF305807047000019
:100260000648804706480047FEE7FEE7FEE7FEE750
:10027000FEE7FEE7FEE7FEE7FEE7FEE76126000891
:10028000890100082DE9F05F0546002092469B4653
:1002900088460646814640241BE02846414647469C
:1002A000224600F019F953465A46C01A914110D31C
:1002B00011461846224600F000F92D1A67EB010896
:1002C0004F4622460120002100F0F7F817EB000905
:1002D0004E41201EA4F10104DFDC484631462A4687
:1002E0004346BDE8F09F00000649074A08685043AE
:1002F00043F2390210440860400870470149086021
:10030000704700000C0300206D4EC64110B5431A23
:10031000934209D28318881803E010F8011D03F8EE
:10032000011D521EF9D210BD40EA01039B0703D004
:1003300009E008C9121F08C0042AFAD203E011F824
:10034000013B00F8013B521EF9D210BDD2B201E0D0
:1003500000F8012B491EFBD270470022F6E710B5CA
:1003600013460A4604461946FFF7F0FF204610BD23
:1003700030B504460020034600E05B1C934203D2E4
:10038000E05CCD5C401BF8D030BD2DE9FE4F81EA2A
:10039000030404F0004421F0004100944FF0000BEE
:1003A00023F0004350EA01045ED052EA03045BD01C
:1003B000C3F30A54C1F30A552C44A4F2F334019454
:1003C000A0FB0254C1F3130141F48011C3F31303E2
:1003D00043F4801301FB024400FB034E840A970A96
:1003E00044EA815447EA8357A4FB076802958D0AC3
:1003F00005FB07854FEA932C04FB0C542705029D4F
:100400004FEA065847EA1637B5EB08056EEB070CBE
:10041000870E920E47EA811742EA8312A7FB020178
:10042000B6EB0B0164EB00042B0D43EA0C335E18B2
:1004300044EB1C50DA465146E7FB0201C5F31304B6
:100440004FEA0B3343EA14534FEA0432019C43EA68
:100450000603A4F10C040294009CCDE900B400F062
:100460005AF803B0BDE8F08F00200146F9E70EB559
:1004700040F2334102910021CDE900110A460B46BA
:1004800000F049F803B000BDC1F30A5210B5C1F342
:10049000130140F2FF3341F480119A4201DA002047
:1004A00010BD40F233439A42A2F2334203DC52427F
:1004B00000F012F810BD904010BD202A04DB203A55
:1004C00000FA02F1002070479140C2F1200320FAA7
:1004D00003F3194390407047202A04DB203A21FAA5
:1004E00002F00021704721FA02F3D040C2F120024D
:1004F000914008431946704710B5141E73F100046B
:1005000008DA401C41F1000192185B411A4301D105
:1005100020F0010010BD2DE9F04D92469B4611B12F
:10052000B1FA81F202E0B0FA80F220329046FFF791
:10053000C4FF04460F4640EA0A0041EA0B01534655
:100540005A46084313D0114653EA010019D0C8F1A6
:1005500040025046FFF7C0FF05460E46504659463A
:100560004246FFF7AAFF084305D0012004E02046D9
:100570003946BDE8F08D0020054346EAE0762C437D
:1005800037430A986305E40AA0EB08000022FD0A3D
:1005900044EA47540A3002D500200146E9E7010544
:1005A00010196941DDE9084500196941BDE8F04DC0
:1005B000A2E70000064C074D06E0E06840F00103AA
:1005C00094E8070098471034AC42F6D3FFF7E0FDFB
:1005D0005C8801087C88010870B58C1810F8015BF4
:1005E00015F0070301D110F8013B2A1106D110F8CC
:1005F000012B03E010F8016B01F8016B5B1EF9D1D0
:100600002B0705D40023521E0DD401F8013BFAE755
:1006100010F8013BCB1A921C03E013F8015B01F8C0
:10062000015B521EF9D5A142D8D3002070BDFEE770
:100630007047F0B5002200234FF00045016902EB3E
:10064000820401EBC4010B604B608B60CB600B62DA
:100650004B620D60466946F480464E604E6826F057
:1006600000464E6000EB8206B164032A06D22827BA
:10067000066907EBC4043444CC6001E00469CC6033
:10068000521C042ADAD3C36503668366C366836596
:100690000169006800F58050C160F0BD70B50022AE
:1006A0000024C16802EB820301EBC3010C604C60C3
:1006B0008C60CC6000EB8205A9610D6845F4801563
:1006C0000D60032A06D22826C56806EBC3032B4417
:1006D000CB6001E0C368CB600B6843F440030B6060
:1006E000521C042ADDD38462C168006800F5805082
:1006F000016170BD38B50446206800F580508169FD
:1007000041F480118161206800F58050806900907B
:10071000012000F061FB2068009900F580508161A4
:1007200038BD0000014800F0FFBB0000D0040020ED
:100730001079537940EA0323074808440364117889
:10074000D37841EA0361937852781B0443EA02228A
:1007500011434164704700000080024070B5A4B0AE
:10076000064601258DF83C508DF83D5000240D942F
:100770008DF84B408DF84A508DF848408DF83A502E
:100780008DF830508DF84C408DF83B4014948DF826
:1007900054401D948DF878401F948DF882408DF858
:1007A0008040A8031090C01011908DF881400BA9D3
:1007B000304600F071F98DF80C508DF80D508DF821
:1007C0001D508DF80E5005948DF81C408DF81E407C
:1007D00008948DF824508DF804502804029080016C
:1007E0000690401204908DF825500A9400946946B2
:1007F000304600F0F1F824B070BD0020704701F0E1
:10080000C1B8000010B5024800F07AFE002010BD0B
:10081000D004002010B513460A460146044800F0F3
:10082000A6FD10B14FF0FF3010BD002010BD00003C
:10083000D004002010B513460A460146044800F0D3
:1008400076FF10B14FF0FF3010BD002010BD00004A
:10085000D00400202DE9F04318300469254650F8F3
:1008600024308E684FF0000C1F68002F03DB00EB74
:1008700084077F6917B10220BDE8F0830127D6F80D
:100880000080C3F80880D3F80480D6F804906FF392
:100890000C0848EA0908C3F8048091F800805FEA70
:1008A000C87809D0D3F80080D1F8149028F4400813
:1008B00048EA0908C3F8008091F800805FEA886878
:1008C00009D5D3F80080D1F8109028F0406848EAA4
:1008D0000908C3F800800978490703D5196841F071
:1008E00080011960196841F08051196047E019686A
:1008F00021F00051196022B1196841F0804119605E
:1009000003E0196821F080411960641C042C00D3B5
:10091000241F50F824301968002903DB00EB840100
:100920004969A1B150F8252000210CE0BFF35F8F89
:10093000136823F0004313606D1C042D00D32D1F9A
:1009400050F82520491CB942F0D3022094E71968D9
:1009500021F0805119607F1CB66831689960596830
:10096000D6F804806FF30C0141EA080159600CF1DC
:10097000010CBFF35F8F196841F000411960B16845
:100980000029B4D122B1196841F08041196003E017
:10099000196821F080411960196841F0005119600F
:1009A00050F82510BFF35F8F0A6842F000420A60DA
:1009B00000EB8402416A51610461EFF3108101226E
:1009C00082F31088826A0CF1010C6244826281F326
:1009D0001088002050E7000070B505460C462868D6
:1009E00000F5805082692B490A40217B00294CD0B8
:1009F0000021637B890641EA4363617FE9B30021FB
:100A000043EA0151A37B41EA435163691943237FC0
:100A100041EAC311A37F41EA8311236A194394F881
:100A2000243041EA830111438161286800F5805038
:100A30008669012000F0D0F9286800F580508661B1
:100A4000A169A06822790843216941EA426108430B
:100A500094F8251040EAC110A16A40EA810021689B
:100A6000084340F40001286800F5805001602868C0
:100A700000F580500468012000E008E000F0ACF9C7
:100A8000286800F58050046070BD0121B1E70121A4
:100A9000B6E70000233FDEF870B505460C4628682F
:100AA00002683E490A40A37BA16841EA4363217C76
:100AB000002963D00021CE05617C002960D000218F
:100AC00046EA81510B43E17F43EA014361690B43ED
:100AD000A17FE9B3002143EA4131237F41EA033199
:100AE000A3691943237941EA832394F8201081B341
:100AF000002143EA4121E37B41EAC311636A1943C0
:100B000094F8283041EA031111430160286806680F
:100B1000012000F061F928680660286882694FF6B4
:100B200041710A40A36C216D41EA034394F84C10D3
:100B300061B30021CE0194F85510012928D000217D
:100B400046EAC1010B4394F85610012922D001E076
:100B500018E019E0002143EA810394F854100129B8
:100B60001AD0002143EA4101114381612868846958
:100B7000012000F031F92868846170BD01219AE7F5
:100B800001219DE70121A6E70121B2E70121D1E77B
:100B90000121D5E70121DEE70121E3E70F8120FDF7
:100BA0002DE9F8430546002000904FF00108AE6E95
:100BB00005EB8600846CEF6E1DE0206A30B9684654
:100BC00000F03AFC009878B32062A060B8F1000F02
:100BD00011D0A86D48B3686940F480406060206817
:100BE00040F000402060761C042E00D3361F05EB39
:100BF0008600846C7F1E17B1B8F1000FDDD1E86E5E
:100C0000B8420FD0701C00F00300BFF35F8F29695A
:100C100000EB800001EBC001286800F58050816086
:100C2000AE66EF66BDE8F88300E002E04FF0000832
:100C3000CCE70249686908436060D0E70040008063
:100C400030B5B3F5804F05D06FF0704140F82210F9
:100C5000002030BD8C690B688D6823434C688989FE
:100C6000240144EA0524234343EA014150F8223099
:100C7000024C2340194340F82210E9E70000F0CF6E
:100C800010B50A6850F8223023F0010340F82230F2
:100C90008B68082B23D000224C681C43CB6813437D
:100CA0000A691C4314434A691443CA6914430A6A13
:100CB00014434A6A14438A6A1443CA6A14430A6B87
:100CC00014438A692243CB6B1343064C096850F8DE
:100CD0002120A2431A4340F82120002010BD4022C9
:100CE000DAE700007FFF0F0030B5D1E9003443EAB6
:100CF00004138C688D89240244EA054423430C8A3A
:100D0000641E43EA04540B7D89699B1E44EA036315
:100D10000B43521C50F8221001F040410B4340F8A5
:100D20002230002030BD2DE9F0410446A76D00F0CF
:100D300029FE054694F835000026022806D08020BA
:100D4000606584F834600120BDE8F08120680168A6
:100D500021F0160101602068416921F080014161A4
:100D6000206C08B9A06C20B12068016821F008014E
:100D700001602068016821F0010101600BE000F0D2
:100D800001FE401B052806D92020343420620320B0
:100D900060702670D8E720680068C007EFD134344F
:100DA0003F2094F828108840B860012060702670B9
:100DB0000020C9E790F83510022903D08021416551
:100DC00001207047052180F835100068016821F086
:100DD000010101600020704770B5044600F0D2FDAB
:100DE0000546601C02D004480078044400F0CAFDA7
:100DF000401BA042FAD370BD1C00002008B500F0D3
:100E00001BF8000613D50020009009486946806849
:100E100013F076FD01280AD10098002807D0054973
:100E20004FF080500860BFF34F8FBFF36F8F08BD46
:100E30006802002004ED00E0D0F88C007047002923
:100E400070D002681268C2F3001281F8282002688C
:100E5000126802F060024A620268126842F340229D
:100E6000521C81F8202002681268C2F30042CA773F
:100E70000268126842F34032521C8A770268126894
:100E8000C2F300320A770268126802F400628A61D3
:100E90000268126802F480424A610268126842F3F2
:100EA0008052521C4A740268126842F3C052521CAB
:100EB0000A7402681268C2F3C012CA730268126828
:100EC00002F460228A6002681268C2F380220A710A
:100ED00002681268C2F340628A7302689269C2F3C0
:100EE000400281F854200268926942F3C012521CF9
:100EF00081F84C200268926902F030020A650268AB
:100F00009269120C8A6402689269C2F3800281F8C5
:100F1000562000688069C0F3C00081F855000020A9
:100F20007047FFE70120FBE72DE9F0470446206802
:100F3000876B00F580504569C669DFF8B890D9F82D
:100F40000080690606D5710604D52B49416120460B
:100F500000F096FA05EA0600C00708D020684FF0B6
:100F6000011100F580504161204600F0C3FB2804C8
:100F700026D5300424D5D4F8880040F00800C4F801
:100F80008800A8040FD5206800F5805041691B4AED
:100F90001140C4F88C10C16921F4C031C161E02056
:100FA000C4F8840009E0206800F58050426948F2E6
:100FB00080610A40C4F88C2041612046FFF71EFF83
:100FC00038070BD52068C06A00F06000C4F89400B0
:100FD000204600F059F90020C4F894005FEA083078
:100FE00006D54FF40020C9F80000204600F09EFB13
:100FF000BDE8F087143C01404000010000207E0065
:10100000F8B50446002C03D0D4F8840010B107E0F2
:101010000120F8BD2320C4F88400204600F062F8C7
:1010200000272D48016841F480410160006800F408
:10103000804000902948016821F4000101600168A6
:10104000A268114301600068206800F580500168C3
:1010500041F00101016000F095FC05464FF4FA767D
:101060000BE000F08FFC401BB04206D90420843412
:101070006060E02020600120F8BD206800F580500D
:101080000068C007EDD12046FFF768FB2046FFF758
:1010900005FB2046FFF7CDFA002120466268FFF7E6
:1010A00047FB2068C16B41F40271C1632068D0F82E
:1010B0000C110B4A1143C0F80C112068D0F8101124
:1010C00041F40311C0F81011C4F888701020C4F85E
:1010D00084000020F8BD000044380240043801407C
:1010E0006000020030B587B000216248026842F01B
:1010F00001020260026802F001020192026842F0FD
:1011000001020260026802F001020192026842F0EC
:1011100001020260026802F001020192026842F0DC
:1011200004020260026802F004020192026842F0C6
:1011300004020260026802F004020192026842F0B6
:1011400004020260026802F004020192026842F0A6
:1011500040020260026802F040020192026842F01E
:1011600040020260026802F040020192026842F00E
:1011700040020260026802F040020192026842F0FE
:1011800000720260026802F000720192026842F08E
:1011900080620260026802F080620192026842F09E
:1011A00000620260006800F0006001900224029476
:1011B00003940491032005900B2006902E4D02A964
:1011C000284600F0E1FA0421029102A9284600F025
:1011D000DBFA8021029102A9284600F0D5FA029498
:1011E000264C02A9204600F0CFFA1021029102A954
:1011F000204600F0C9FA2021029102A9204600F001
:10120000C3FAE01402901E4C02A9204600F0BCFA7A
:101210004FF40051029102A9204600F0B5FA4FF4B4
:101220008041029102A9204600F0AEFA0CF037F995
:101230000820029001200390124C02A9204600F0E1
:10124000A3FA00220821204600F08EFB642001F062
:10125000A1FE01220821204600F086FB0CF021F9B6
:10126000002207213D2000F0E1FB3D2000F0D1FBF2
:1012700007B030BD30380240000002400008024094
:1012800000180240000C024070472DE9F35F04464D
:101290000027B8460198002806D0D4F884002328F7
:1012A00009D00120BDE8FC9F54F8880F40F00100F0
:1012B00020600120F6E7E66D04EB8600856CE06EA9
:1012C000C0F1040B4FF0000A35E02868C00503D5D3
:1012D000E869A067A86960672868800501D4E06FA5
:1012E00008B32868800503D5C4F860A0C4F864A0DA
:1012F0002868C0F30D492868C00503D52868206711
:101300004FF00108AA682A6204F180011FFA89F3EC
:10131000081F00F0CFF8206E401C2066606E484425
:101320006066C5F820A0761C042E00D3361F04EB9F
:101330008600856C7F1C2868002804DB5F4502D28C
:10134000B8F1000FC1D0E06E3844E06610B120461D
:10135000FFF726FCE665B8F1010F01D00120A1E7F7
:101360000198E16F0160C4F87CA000209AE72DE9A4
:10137000F041054698462868036903F01C034FF6C0
:10138000FF7404EAC12119434FF4F86303EA82129F
:101390000A4322F0020141F00104046100F0F2FA74
:1013A00006464FF4803709E000F0ECFA801BB842A3
:1013B00002D30120BDE8F08128680469E007F3D179
:1013C0002868406980B2C8F800000020F2E72DE9E3
:1013D000F047814609F11805AE6AEC6A4FF0010842
:1013E00023E00121761E05EB8400406920B9641CCE
:1013F000042C00D3241F0021B9B1D9F80C0004EB50
:10140000840150F8310000280DDB05EB8407786972
:1014100000F08AF900207861641C042C00D3241F9A
:10142000AE62EC6201E04FF0000816B1B8F1000FB7
:10143000D7D10020BDE8F0871CB504460D4809F05F
:10144000CFFD03467BB103F1200020600A481861FC
:1014500040F2F4512068CDE9000100214122084604
:101460000AF0ECFA1CBD054901200870002020603C
:101470001CBD0000F485010861BF0008680200205F
:1014800008B50020009009486946806813F038FAD2
:1014900001280AD10098002807D005494FF0805054
:1014A0000860BFF34F8FBFF36F8F08BD6802002045
:1014B00004ED00E010B5203A00241460148153813B
:1014C0000468002C04D00C6822600A60006805E003
:1014D0000260FAE701891944018100680028F9D106
:1014E00010BD10B5002905D0D0F88420102A03D0F3
:1014F000012010BD012010BDFFF7CEFA002010BD65
:1015000070B505462868006920F01C0400F066FBF1
:101510000C49884202D244F0080410E00A4988428B
:1015200002D244F00C040AE00849884207D3084973
:10153000884202D244F0040401E044F01004286818
:10154000046170BDC00E16020087930300E1F5052B
:1015500080D1F00870B50446D4F88400102801D07A
:10156000012070BD2326C4F884600120A0650420FA
:10157000E0662046FFF714FB206805680120FFF7AE
:101580002BFC20680560206800F58050816941F4DB
:1015900000518161206800F58050816941F00201AD
:1015A00081612046FFF7A6F82068016841F0080134
:1015B0000160206805680120FFF70EFC20680560C7
:1015C0002068016841F004010160206800F5805046
:1015D000C169034A1143C161C4F88460002070BD31
:1015E000C1A0010070B50446D4F88400232801D0BE
:1015F000012070BD2320C4F88400206800F58050CD
:10160000C1691F4A1140C161206800F5805081699D
:1016100021F400518161206800F58050816921F03A
:10162000020181612068016821F0040101602068E5
:1016300005680120FFF7D0FB206805602046FFF712
:1016400059F82068016821F00801016020680568E8
:101650000120FFF7C1FB20680560002004EB80013A
:10166000896C4A6842F000424A60401C0428F5D365
:101670000020A0651020C4F88400002070BD000088
:101680003E5FFEFF10B50446002905D0D4F8840063
:10169000232808D0012010BD54F8880F40F0010025
:1016A0002060012010BD486BE06301222046FFF757
:1016B000D1F830B154F8880F40F0020020600120CA
:1016C00010BDBFF34F8FA06A401CA062042801D355
:1016D000001FA062206800F580504169490706D5C7
:1016E000042141612068002100F580504160002004
:1016F00010BD000008B50020009009486946406808
:1017000013F0FEF801280AD10098002807D00549F7
:101710004FF080500860BFF34F8FBFF36F8F08BD4D
:101720006802002004ED00E00AF068BB70472DE974
:10173000F04105462868046904F01C044FF6FF7662
:1017400006EAC12121434FF4F86404EA82120A43F5
:1017500042F0020141F0010499B24161286804613C
:1017600000F010F906464FF4803709E000F00AF95E
:10177000801BB84202D30120BDE8F08128680469CB
:10178000E007F3D1F8E700002DE9F84F0022DFF879
:101790009C914FF0010803274FF00F0C09F1040A48
:1017A000A9F1040B08FA02F50B682B40AB426ED18D
:1017B0000C7904F00304012C01D0022C15D18668A9
:1017C000540007FA04FE26EA0E06D1F80CE00EFAE1
:1017D00004FE4EEA060EC0F808E04468AC430D79FA
:1017E000C5F300159540254345600C79E443A407F3
:1017F00008D0C568540007FA04F6B5438E68A640C1
:101800002E43C6600C7904F00304022C11D1D408D5
:1018100000EB8406356A5407E40E0CFA04FE25EA50
:101820000E05D1F810E00EFA04FE4EEA050EC6F8D9
:1018300020E00568540007FA04F6B5430E7906F077
:101840000306A6402E4306604C6814F4403F67D060
:10185000374C256845F480452560246804F48044AD
:101860000094344C22F003052E19D6F8085894073A
:101870004FEA147E0CFA0EF4A5432F4CA04201D17E
:10188000002424E02D4CA04202D101241FE047E0B7
:101890002B4CA04201D1022419E02A4CA04201D1D4
:1018A000032414E0284CA04201D104240FE0274C6B
:1018B000A04201D105240AE0254CA04201D1062412
:1018C00005E0244CA04201D1072400E0082404FADA
:1018D0000EF42C43C6F80848D9F800409C434D68E4
:1018E000ED0200D51C43C9F80040DAF800409C43E3
:1018F0004D68AD0200D51C43CAF80040DBF800403B
:101900009C434D68AD0300D51C43CBF80040074D08
:10191000083D2C689C434E68F60300D51C432C60A0
:10192000521C102AFFF43EAFBDE8F88F083C01407E
:1019300044380240003001400000024000040240F0
:1019400000080240000C0240001002400014024057
:1019500000180240001C0240426921EA02030A40CA
:1019600043EA024181617047002A01D081617047DA
:10197000090481617047000001480068000C70474D
:10198000002004E001488068704700001C0000202F
:101990000248816802781144816070471C00002071
:1019A00010B50948016841F400710160016841F413
:1019B00080610160032000F059F80F2000F006F864
:1019C00000F026F8002010BD003C024070B504462F
:1019D0000D4D4FF47A712878B1FBF0F00B4909688E
:1019E000B1FBF0F000F0ACFB08B1012070BD102C91
:1019F00007D200222146501E00F018F86C6000202B
:101A000070BD012070BD00001C00002000000020FF
:101A10007047002809DB00F01F02012191404009B6
:101A2000800000F1E020C0F800117047F0B40D46CE
:101A30000D4B1B68C3F30223C3F10704042C00D928
:101A40000424191D072901D2002300E0DB1E012612
:101A500006FA04F1491E294099409E40761E164020
:101A60003143F0BC01F02EB80CED00E000F00701AE
:101A7000054A10684FF6FF03184040EA0120034969
:101A800008431060704700000CED00E00000FA050C
:101A90002DE9F04704460D46002C13D0DFF82891BD
:101AA000D9F80000EFB200F00700A8420CD289F884
:101AB0000070D9F8000000F00700A84204D001200F
:101AC000BDE8F0870120FBE72068404E810712D572
:101AD000400703D5306840F4E050306020780007BC
:101AE00003D5306840F4604030603068A16820F071
:101AF000F000084330602078C00731D03349606877
:101B00000839012808D002280BD0032809D0096819
:101B100089070BD40120D3E70968890306D4012083
:101B2000CEE70968890101D40120C9E7316821F0B5
:101B3000030101433160FFF725FF804641F2883AF7
:101B400007E0FFF71FFFA0EB0800504501D9032075
:101B5000B6E73068616800F00C00B0EB810FF0D19F
:101B6000D9F8000000F00700A84209D989F80070F0
:101B7000D9F8000000F00700A84201D001209FE73B
:101B80002078400705D53068E16820F4E05008432C
:101B900030602078000706D53068216920F4604065
:101BA00040EAC100306000F03FF83168084AC1F3F4
:101BB0000311515CC8400749086007480068FFF7F7
:101BC00005FF00207CE70000003C0240083802408E
:101BD000D8540108000000202000002001480068BF
:101BE000704700000000002000B5FFF7F7FF044930
:101BF0000968044AC1F38221515CC84000BD00005D
:101C000008380240E854010800B5FFF7E7FF04492F
:101C10000968044AC1F34231515CC84000BD00006C
:101C200008380240E854010810B51748006810F061
:101C30000C01164816D04310042912D0082911D1DE
:101C4000114C241F216801F03F02216849020AD586
:101C50002068C0F38810A0FB03010023FEF712FBED
:101C600009E0184610BD21680023C1F38811A1FBCB
:101C70000001FEF707FB2168C1F30141491C49003F
:101C8000B0FBF1F010BD0000083802400024F40061
:101C90002DE9F84F0446002C13D02078DFF8A083FC
:101CA000C007A8F1040556D008F104000168C1F38B
:101CB000810101290CD00068C0F38100022803D003
:101CC0000DE00120BDE8F88FD8F80000400206D5ED
:101CD000286880033FD5606870BB0120F2E7606828
:101CE000B0F5803F10D0B0F5A02F12D0286820F4B6
:101CF00080302860286820F4802028606068E0B187
:101D0000FFF740FE064614E0286840F48030286063
:101D1000F4E7286840F480202860286840F4803088
:101D20002860EBE7FFF72EFE801B642801D9032013
:101D3000C8E728688003F5D50DE0FFF723FE0646C7
:101D400006E0FFF71FFE801B642801D90320B9E7D6
:101D500028688003F5D42078BA4F80074FF0000937
:101D600048D5B748001D016811F00C0F08D0006875
:101D7000C0F38100022813D1D8F8000040020FD42C
:101D80002868800704D5E068012801D0012099E780
:101D90002868216920F0F80040EAC100286029E0A5
:101DA000E068B8B101203860FFF7ECFD064606E0B8
:101DB000FFF7E8FD801B022801D9032082E728688D
:101DC0008007F5D52868216920F0F80040EAC100B5
:101DD00028600FE0C7F80090FFF7D4FD064606E044
:101DE000FFF7D0FD801B022801D903206AE728688D
:101DF0008007F5D42078000729D5DFF844A292485F
:101E000061690AF1700A89B101210160FFF7BAFD29
:101E1000064606E0FFF7B6FD801B022801D9032025
:101E200050E7DAF800008007F4D510E0C0F8009021
:101E3000FFF7A8FD064606E0FFF7A4FD801B022879
:101E400001D903203EE7DAF800008007F4D42078B7
:101E5000400778D54FF0000A79483C300068C00050
:101E60000BD477483C30016841F080510160006834
:101E700000F0805000904FF0010ADFF8D0B1DBF89D
:101E80000000C00514D4DBF8000040F48070CBF8EB
:101E90000000FFF777FD064606E0FFF773FD801BA5
:101EA000022801D903200DE7DBF80000C005F4D5B6
:101EB000634EA0686C3601280FD0052812D0306818
:101EC00020F001003060306820F004003060A0682D
:101ED000F8B1FFF757FD834617E0306840F0010086
:101EE0003060F4E7306840F004003060306840F063
:101EF00001003060EBE7FFF745FDA0EB0B0141F27D
:101F00008830814201D90320DCE630688007F2D5B1
:101F100010E0FFF737FD834609E0FFF733FDA0EB44
:101F20000B0141F28830814201D90320CAE63068B2
:101F30008007F2D4BAF1010F05D141483C30016865
:101F400021F080510160A069C0B33D49091D0968B5
:101F50004FF0FF36C1F38101022946D0022805D097
:101F6000C7F86090FFF70EFD04463AE0C7F86090AE
:101F7000FFF708FD814607E0FFF704FDA0EB09002D
:101F8000022801D903209DE628688001F4D4D4E911
:101F900007010843616AA26A890106EB520241EA1D
:101FA0000241084394F82C1040EA0160C8F8000090
:101FB00001203866FFF7E6FC044607E03DE0FFF746
:101FC000E1FC001B022801D903207BE62868800180
:101FD000F5D532E0FFF7D6FC001B022801D903201B
:101FE00070E628688001F5D427E0012823D0D8F8CE
:101FF0000000E26900F4800191421AD1226A00F0E7
:102000003F01914215D147F6C071626A0140B1EBC0
:10201000821F0ED1A26A00F4403106EB5202B1EBEE
:10202000024F06D194F82C1000F07060B0EB016FF5
:1020300003D0012046E6012044E6002042E60000ED
:102040000438024000004742800E474200700040C2
:1020500070B504460E461546002C03D094F849008E
:1020600010B107E0012070BD002084F84800204630
:1020700000F01EF804F108012068FEF701FE314669
:10208000A2682068FEF730FED4E901022946236BDE
:10209000FEF7D6FDA168206850F8212042F0010229
:1020A00040F82120012084F84900002070BD000084
:1020B00000B587B01848016841F00101016000686F
:1020C00000F00100019014480838016841F008014F
:1020D0000160016801F008010191016841F01001FF
:1020E0000160006800F0100001904CF20370029053
:1020F000022003900121049105900C20069002A972
:102100000648FFF741FB4FF68070029002A9044891
:10211000FFF73AFB07B000BD38380240000C024020
:10212000001002404FF0E021042804D0086920F09C
:10213000040008617047086940F0040008617047B6
:1021400010B5401EB0F1807F01D3012010BD4FF0CB
:10215000E02460610F21601700F0B4FC0020A06152
:1021600007202061002010BD10B50446002C03D0CC
:1021700094F83D0010B107E0012010BD002084F864
:102180003C00204600F015F8022084F83D00211D97
:10219000206800F087FA01203D3460726070A07002
:1021A000E07020716071A071E071207220700020D9
:1021B00010BD704790F83D10012901D001207047F3
:1021C000022180F83D100168CA6842F00102CA602D
:1021D00000681449884214D0B0F1804F11D01249E0
:1021E00088420ED0114988420BD01149884208D04C
:1021F0001049884205D01049884202D00F498842D0
:1022000009D1816801F00701062908D0016841F071
:102210000101016003E0016841F00101016000205B
:10222000704700000000014000040040000800402A
:10223000000C004000040140004001400018004034
:1022400070477047F8B5044622681068D168536932
:1022500000F00F06002E08D1850606D58D0604D5A0
:102260002046BDE8F84000F0C7BA0025002E66D031
:1022700003F0010601F49077374360D0C20705D020
:10228000CA0503D5626C42F001026264420705D5BB
:10229000DA0703D0626C42F002026264820705D55D
:1022A000DA0703D0626C42F004026264020707D5C9
:1022B00001F02002324303D0626C42F008026264F3
:1022C000626C002A31D0800604D5880602D52046EB
:1022D00000F092FA20684069C0F38010616C090731
:1022E00000D438B3204600F053FA20684069400615
:1022F0001CD52068143050E8001F21F0400140E850
:102300000012002AF5D1E06B60B159490165E06B1C
:10231000FEF750FD002808D0E06B016D01B0BDE86C
:10232000F04008472046FFF78CFFF8BD2046FFF736
:1023300088FFF8BD2046FFF784FF6564F8BD236B76
:10234000012B7DD1C3067BD5CB067FD510685068A5
:10235000009050694FF0200340064FF0020644D52C
:10236000E16B0868406880B20028E7D0A28D824205
:10237000E4D9E085C869B0F5807F2DD020680C30A5
:1023800050E8001F21F4807140E80012002AF5D1C6
:102390002068143050E8001F21F0010140E80012CD
:1023A000002AF5D12068143050E8001F21F04001C8
:1023B00040E80012002AF5D184F8423025632068F5
:1023C0000C3050E8001F21F0100140E80012002AF4
:1023D000F5D1E06BFEF7A7FC6663A08DE18D401A96
:1023E00081B22046FFF72CFFF8BDA08DE18D401A89
:1023F00081B2E08D0028F7D00029F5D020680C309C
:1024000050E8002F22F4907240E80027002FF5D109
:102410002068143050E8002F22F0010240E8002725
:10242000002FF5D184F84230256320680C3050E845
:10243000002F22F0100240E80023002BF5D100E02D
:1024400004E066632046FFF7FBFEF8BD020606D5F2
:102450000A0604D52046BDE8F84000F0D7BA400689
:10246000F3D54806F1D52046BDE8F84000F0B7B9ED
:102470008127000870B50446002C04D094F8410070
:10248000002510B106E0012070BD84F840502046C0
:1024900000F024F8242084F841002068C16821F469
:1024A0000051C160204600F00BFA2068016921F458
:1024B000904101612068416921F02A014161206851
:1024C000C16841F40051C1606564202084F8410076
:1024D00084F842006563002070BD000030B587B00D
:1024E00000681F49884238D11E48016841F0100138
:1024F0000160006800F0100001901A48143801686B
:1025000041F001010160016801F0010101910168E0
:1025100041F001010160006800F0010001904FF4FA
:10252000007002900220039001210491059007247D
:1025300006940D4D02A92846FFF726F929150291A8
:10254000069402A92846FFF71FF92520FFF761FA34
:10255000032211462520FFF769FA07B030BD0000BD
:1025600000100140443802400000024090F8423020
:10257000202B01D00220704721B11AB10023036340
:1025800000F028BA0120704730B40068164988422C
:1025900028D1164A5088010419D4114644040978F8
:1025A0004FF0000307D50A2901D053800FE040F413
:1025B000004050800BE00D2910D00D4DC0F30D04EC
:1025C0002955401C80B25080C72800D95380084844
:1025D000012230BC0549C830FFF7C8BF40F4804035
:1025E0005080F4E730BC7047001001401400002018
:1025F000100300207047FEE7FEE77047104D114CB6
:102600002868D0F8C41119B1002011F01BFDF7E7BC
:10261000D0F894110A290ED9216821F40001216013
:10262000216841F400012160D0F8001141F001015E
:10263000C0F80011E4E7C82011F0C4FCE0E7000096
:10264000D00400200438014010B5FFF7A1F912F0C2
:102650002DFC012803D0BDE8104011F0A3BF10BD30
:102660000248016841F470010160704788ED00E0A4
:1026700010B50A4C2068C068C043C00709D108489B
:102680000069804721680020486221686420C86290
:10269000E06021686FF00100086110BDC0060020F5
:1026A000780000202DE9F04102682A4D2A4E2B4F78
:1026B000DFF8ACC02B4B4FF08048A84209D0404512
:1026C00007D0B04205D0B84203D0604501D098424F
:1026D00003D122F070044A682243A8421BD040452F
:1026E00019D0B04217D0B84215D0604513D09842E7
:1026F00011D01D4CA0420ED01C4CA0420BD01C4C43
:10270000A04208D01B4CA04205D01B4CA04202D0D6
:102710001A4CA04203D122F44074CA6822434C6987
:1027200022F08002224302608A68C2620A688262E2
:10273000A84201D0984201D1096901630121416198
:102740000169C90703D0016921F001010161BDE8F8
:10275000F08100000000014000040040000800403B
:10276000000C0040000401400040014000440140D2
:102770000048014000180040001C004000200040BC
:1027800010B5806B0021C185C184FFF75AFD10BDD3
:1027900001680C3151E8002F22F4907241E80023C7
:1027A000002BF5D10168143151E8002F22F001020D
:1027B00041E80023002BF5D1016B012909D1016803
:1027C0000C3151E8002F22F0100241E80023002BC9
:1027D000F5D1202180F8421000210163704710B527
:1027E0000168CA6822F04002CA60202180F84110C6
:1027F000FFF700FF002010BD08B590F84210222915
:1028000001D0022008BD82684FF480539A4201D162
:10281000016921B1816A9A421DD052B10BE0816AEF
:1028200002685268C2F308020A80816A891C8162C8
:1028300009E002697AB10268526802F07F020A7008
:10284000816A491C8162C18D491E0904090CC18538
:1028500005D0002008BD026852680A70F0E70168E0
:10286000CA6822F02002CA600168CA6822F4807235
:10287000CA6001684A6922F001024A61202180F899
:10288000421000214163026B012A03D0FFF77CFE56
:10289000002008BD016301680C3151E8002F22F0CF
:1028A000100241E80023002BF5D101680A68D20626
:1028B00002D50A6849680091818DFFF7C1FCE7E7FE
:1028C0002DE9F041044620680169E26821F4405195
:1028D00011430161A1682069E26901436069104305
:1028E00001432068C26849F20C639A430A43C260FC
:1028F00020684169A26921F4407111434161334963
:102900002068884202D03249884202D1FFF77CF920
:1029100001E0FFF769F9E1690023192764253226F0
:10292000B1F5004F28D061688B0F8A00A0FB07012A
:10293000FDF7A8FC0146B0FBF5F07A42504301EBED
:10294000800006EB0010B0FBF5F000F0F002B1FBE8
:10295000F5F002EB0012B1FBF5F07B42584301EBBE
:10296000800006EB0010B0FBF5F0216800F00F00CE
:1029700010448860BDE8F08161684A18A0FB070137
:102980005B41FDF77FFC0146B0FBF5F00201B1FBB6
:10299000F5F06FF01803584301EB800006EBC00020
:1029A000B0FBF5F000F0F80002EB4002B1FBF5F0EF
:1029B000584301EB800006EBC000B0FBF5F0216846
:1029C00000F0070010448860D4E7000000100140C8
:1029D0000014014081628285C28500214164222168
:1029E00080F842100169002904D00168CA6842F4E5
:1029F0008072CA6001684A6942F001024A61006857
:102A0000C16841F02001C1600020704790F841107A
:102A1000212901D0022070478168B1F5805F01D182
:102A2000016961B1016A4A1C026202680978516059
:102A3000C18C491E0904090CC1840AD013E0016A43
:102A400002680988C1F308015160016A891C0162AA
:102A5000EEE70168CA6822F08002CA600068C168B7
:102A600041F04001C1600020704700000148FFF7BD
:102A7000E9BB0000D8030020FEE700000FB4054BBF
:102A800010B503A9044A029800F03CF810BC5DF8A8
:102A900014FB0000C9550008180000200FB4084BB3
:102AA00010B504A902AA039800F02CF8044602A964
:102AB000002000F052FA204610BC5DF814FB000024
:102AC0005B2F00080907090E002804DB00F1E02055
:102AD00080F80014704700F00F0000F1E02080F84B
:102AE000141D704702E008C8121F08C1002AFAD15D
:102AF00070477047002001E001C1121F002AFBD17E
:102B0000704700002DE9FF4F8DB00F4605460026A7
:102B100006E025280BD0DDE90F1290476D1C761CCE
:102B200028780028F5D111B03046BDE8F08F002498
:102B3000A246A1460122E94900E0044315F8013FFD
:102B4000203B02FA03F00842F7D128782A2810D057
:102B50006FF02F022878A0F13001092914D80AEB70
:102B60008A0102EB410144F0020400EB010A6D1CF2
:102B7000F0E701CF5FEA000A03D544F40054CAF13C
:102B8000000A44F002046D1C28782E2817D115F88D
:102B9000010F44F004042A280ED06FF02F02287889
:102BA000A0F1300109290AD809EB890102EB4101A2
:102BB00000EB01096D1CF2E757F8049B6D1C2878A7
:102BC0006C280FD006DC4C2817D068280DD06A2856
:102BD00014D104E0742810D07A280FD10DE044F409
:102BE00000140AE044F4801401E044F440146978CD
:102BF000814202D104F580146D1C6D1C28786E286A
:102C00001ED00CDC632830D004DC00288BD0582880
:102C100011D19FE0642867D069280CD164E0732843
:102C20002DD004DC6F2872D0702804D194E0752870
:102C30006ED078286DD0DDE90F129047761C4BE1FD
:102C4000C4F30250022806D0032809D0042801CF7B
:102C500009D0066040E101CFF117C0E900613BE116
:102C600001CF068038E1067036E117F8040B8DF8C5
:102C7000000000208DF80100EB46012003E057F82A
:102C800004BB4FF0FF3061074FF0000102D40DE0AC
:102C900008F10101884649450FDA8045F8DB1BF849
:102CA00008100029F4D108E008F1010188468142AA
:102CB000FADB1BF808100029F6D1DDE90F23AAEB97
:102CC00008008146214600F031F9304400EB080647
:102CD00004E0DDE90F121BF8010B9047B8F1010881
:102CE000F7D221464846F2E00A21C4F302524FF0DF
:102CF000000B0891022A04D001CFC117032A09D082
:102D00000AE0FF1D27F00707F7E8020108E02CE0C2
:102D10001EE01FE000B2C117042A01D140B2C11762
:102D2000021E71F1000206DA0023D0EB030063EB10
:102D300001012D2202E0220504D52B228DF824204A
:102D4000012203E0E20701D02022F7E7904653E09A
:102D50000A210BE0102109E010214FF0000B44F094
:102D600004044FF00809089103E008214FF0000B1C
:102D70000891C4F30252022A04D001CF0021032A91
:102D800006D006E0FF1D27F00707F7E8020103E081
:102D900080B2042A00D1C0B24FF0000822072BD520
:102DA0002A78702A07D0DDF820C08CF0100C5CEA7D
:102DB0000B0C05D00EE040228DF82420012208E003
:102DC00050EA010306D030238DF824308DF82520F9
:102DD00002229046089B83F0080353EA0B030BD1B1
:102DE00050EA010201D1620706D530228DF8242075
:102DF0004FF00108A9F101092A78582A04D038A215
:102E00000B9208AA0A920BE03AA2F9E75B46089AED
:102E1000FDF738FA0B9B9B5C0A9A521E0A921370BC
:102E200050EA0102F2D10A98ADEB000000F1200B4C
:102E3000600702D524F4803401E04FF00109D94540
:102E400002DDA9EB0B0000E0002000EB0B01414488
:102E50000890AAEB010AE00306D4DDE90F2321461E
:102E6000504600F063F806444FF0000908E009A955
:102E700011F80900DDE90F12904709F10109761CEC
:102E8000C145F4DBE0030CD5DDE90F2321465046B4
:102E900000F04CF8064404E0DDE90F1230209047C2
:102EA000761C0899481E08900029F5DC08E00A986D
:102EB0000A990078491C0A91DDE90F129047761CA7
:102EC000BBF10001ABF1010BF1DC21465046DDE91D
:102ED0000F2300F019F806446D1C21E609280100B3
:102EE0003031323334353637383961626364656680
:102EF0000000000030313233343536373839414242
:102F000043444546000000002DE9F04104460025F9
:102F10001E461746880404D405E039462020B047F1
:102F20006D1C641EF9D52846BDE8F0812DE9F041FD
:102F3000044600251E469046C80301D5302700E010
:102F40002027880404D505E041463846B0476D1C6B
:102F5000641EF9D52846BDE8F0810A68531C0B6051
:102F60001070704710B504460420FFF7DBF80848DE
:102F700004604FF47A7044434FF0E021086940F058
:102F8000020008614C61086940F00100086110BD51
:102F90001000002070B5054600244FF47A7603E057
:102FA000304600F005F8641CAC42F9D370BD000057
:102FB00070B500214FF0E0256C690A4A1268504351
:102FC000AB69AA699A42FCD003D2A3EB020319446D
:102FD00003E0A4EB02063344194413468142F0D3C4
:102FE00070BD00001000002000280BD0426A002AAB
:102FF00008D05379082B05D10968D269914201D1D3
:1030000000F0CEB970472DE9FC410546002D5FD098
:103010006C6A002C5CD000276782A36A4FF03C02E8
:10302000581C4FF480384FF0010C4FF6FF760AD051
:103030001E33B3FBF2F0404500D3304683B2A38287
:103040000BB9A4F814C0E36A581C0CD01E33B3FBB0
:10305000F2F1414500D331468BB263810BB9A4F83C
:103060000AC06089E081236B581C0CD01E33B3FB6F
:10307000F2F2424500D3324693B2A3810BB9A4F8D1
:103080000CC0A08920826089A389984201D303B132
:103090006781E07910B1206A01900CE0237F7F2BDB
:1030A00002D8FF20019006E0C02B03D36FF07F40D1
:1030B000019000E00196606A00900A21204601F02C
:1030C00043F96B4601AA04F11C01284608F05CFA9A
:1030D000BDE8FC8170B505466C6A0821204601F008
:1030E00033F9002204F11C01284601F06BFEA0799F
:1030F000FF2801D2401CA0714FF4FA7040F2E73172
:10310000B1FBF0F0208170BD10B51748046828E0CD
:10311000616A09B34879F8B1888A68B1488A401C65
:1031200080B248828A8A904206D1204600F0A4FFED
:10313000204601F011F913E0088A18B1421E0A82F4
:10314000012806D0C88938B1421ECA81012804D09E
:1031500006E0204601F06BF902E0204601F052F94A
:103160002468002CD4D110BDE80100202DE9F047DF
:1031700007460C4616469946002F1BD0002C1CD043
:103180004FF49A7A4FF420725146362008F0E6FA4E
:1031900080465FEA080012D0B8F80A00504506D20F
:1031A0002DA340F2727237A146A0FFF767FC032EF1
:1031B0000AD106E00020BDE8F0870020FBE70020F0
:1031C000F9E76079032807D1A079484D10B9FDF7D8
:1031D0008BF8686068682060D8F80450514628462B
:1031E000FDF7BBF801202870687097F83000A870D0
:1031F000206806F083FF6860082E0AD0042E08D0ED
:10320000072E06D0032E06D16079052801D00428A8
:1032100001D17868E86000243819291990F82A004B
:103220000877641CA4B2062CF6D33148C5F8EC002C
:1032300005F1F001012335220C46002000F0BEFA12
:103240003246214600F000FBB9F1000F01D0A9F889
:1032500000004046AFE700002E2E5C2E2E5C4D692C
:1032600064646C6577617265735C6C7769705C73BC
:1032700072635C636F72655C697076345C6468630A
:10328000702E6300646863705F6372656174655F6C
:103290006D73673A20636865636B2074686174209E
:1032A000666972737420706275662063616E20684F
:1032B0006F6C642073747275637420646863705FEC
:1032C0006D736700417373657274696F6E20222598
:1032D0007322206661696C6564206174206C696E7C
:1032E0006520256420696E2025730A0048020020AD
:1032F0006382536310B50B4C2078002806D10AA3D3
:103300004FF4827213A11CA0FFF7B8FB2078401E77
:10331000C0B22070002804D1A0680FF06BFB002021
:10332000A06010BD480200202E2E5C2E2E5C4D6940
:1033300064646C6577617265735C6C7769705C73EB
:1033400072635C636F72655C697076345C64686339
:10335000702E6300646863705F7063625F7265669D
:10336000636F756E7428293A20726566636F756E97
:1033700074206572726F7200417373657274696F45
:103380006E2022257322206661696C656420617459
:10339000206C696E6520256420696E2025730A0003
:1033A000FEB50646746A0C21204600F0CDFF02AB44
:1033B000042221463046FFF7D9FE0546280026D0D4
:1033C00069680423F03132220F46BDF8080000F08E
:1033D000F5F90290E06906F091FE02463946BDF823
:1033E000080000F089FA02902A46394600F048FBAE
:1033F0000F484323CDE900600F480E4A29468068F4
:103400000FF038FB0646284608F0F8FC01E04FF0C4
:10341000FF36A079FF2801D2401CA07142F60310AC
:103420004FF4FA71B0FBF1F020813046FEBD000090
:10343000E0850108E4850108480200202DE9FE4FDF
:1034400007467D6A4FF000090020E8610621284602
:1034500000F07AFF02AB012229463846FFF786FECC
:103460000646300037D071680223F03139228A468F
:10347000BDF8080000F0A2F902903A8D514600F024
:10348000A1FA029003233722514600F097F90290E7
:103490000024DFF880805146BDF8080018F80420A9
:1034A00000F0D2F90290641CE4B2032CF3D332464C
:1034B0005146BDF8080000F0E3FA17484323CDE970
:1034C00000701448154A401E314680680FF0D2FA49
:1034D000304608F093FCA879FF2801D2401CA8715F
:1034E000A979062902D20120884000E03C2000EBA7
:1034F0004001C1EBC0104FF6FF7101EAC00000F2BD
:10350000F3104FF4FA71B0FBF1F028814846BDE8A2
:10351000FE8F000049020020E0850108E4850108D3
:1035200070B50B48046800250EE0616A59B108893E
:10353000012803D9A0F10100088104E003D10D8125
:10354000204600F08BFF2468002CEED170BD0000F7
:10355000E801002070B5446A002222626262164EC1
:10356000164DF078002801D0E868A062307910B1DB
:103570002869E06202E0A06A4008E062707910B158
:103580006869206304E0A06AC0EBC000C008206343
:103590000869E061B07930B1A86906F0AFFD20623A
:1035A0000120E07100E0E271F079002803D0E869C1
:1035B00006F0A4FD606270BD5402002014340120A6
:1035C00010B50446606A0C2100F0BEFE054B204693
:1035D0001A46114607F0D8FF2046BDE81040FFF715
:1035E0002DBF0000E085010870B505460E466C6AE7
:1035F0000948807800280DD0002020810748806885
:1036000006F07CFDA0613069E0612846BDE87040AD
:1036100000F0FEBD70BD00005402002014340120F3
:1036200010B5154C207800281ED1A068002805D0C0
:1036300012A3EA221CA126A0FFF720FA0FF0A2F99C
:10364000A060B0B1417A41F02001417244222A4980
:103650000EF070FF43222849A0680EF0B1FF00224F
:103660002649A0680FF0C0F92078401C2070002087
:1036700010BD4FF0FF3010BD480200202E2E5C2EF2
:103680002E5C4D6964646C6577617265735C6C7700
:1036900069705C7372635C636F72655C69707634C9
:1036A0005C646863702E6300646863705F696E6356
:1036B0005F7063625F726566636F756E7428293A26
:1036C000206D656D6F7279206C65616B0000000084
:1036D000417373657274696F6E20222573222066B0
:1036E00061696C6564206174206C696E6520256475
:1036F00020696E2025730A00E08501087D3F0008DF
:1037000070B505466C6A002C22D061790026042928
:1037100018D004DC00291BD0032904D112E00529AC
:1037200010D00A290ED00C2906D90AA340F2723211
:1037300013A118A0FFF7A2F9A6712846BDE87040B2
:10374000FFF77CBEA6712846BDE8704000F09CBB28
:1037500070BD00002E2E5C2E2E5C4D6964646C657D
:1037600077617265735C6C7769705C7372635C63BC
:103770006F72655C697076345C646863702E630098
:10378000696E76616C696420646863702D3E737441
:1037900061746500417373657274696F6E202225D0
:1037A0007322206661696C6564206174206C696EA7
:1037B0006520256420696E2025730A002DE9F041FB
:1037C00004460E4690461F46E019801C442806D940
:1037D00007A340F29952114911A0FFF74FF9601C5D
:1037E00085B206F80480681C80B27755BDE8F08188
:1037F0002E2E5C2E2E5C4D6964646C65776172655B
:10380000735C6C7769705C7372635C636F72655C28
:10381000697076345C646863702E6300D487010835
:10382000417373657274696F6E202225732220665E
:1038300061696C6564206174206C696E6520256423
:1038400020696E2025730A0070B504460E461546A1
:10385000442C06D305A340F2A5520FA11CA0FFF7EC
:103860000DF9601C80B2355570BD00002E2E5C2E07
:103870002E5C4D6964646C6577617265735C6C770E
:1038800069705C7372635C636F72655C69707634D7
:103890005C646863702E6300646863705F6F70744B
:1038A000696F6E5F627974653A206F7074696F6ECC
:1038B000735F6F75745F6C656E203C2044484350A5
:1038C0005F4F5054494F4E535F4C454E000000002F
:1038D000417373657274696F6E20222573222066AE
:1038E00061696C6564206174206C696E6520256473
:1038F00020696E2025730A0070B506460D461446F1
:10390000301D442806D90BA340F2B65214A123A0BF
:10391000FFF7B4F8220E701C81B2AA55220C481C85
:1039200080B26A54220A411C89B22A54481C80B2CF
:103930006C5470BD2E2E5C2E2E5C4D6964646C65DB
:1039400077617265735C6C7769705C7372635C63DA
:103950006F72655C697076345C646863702E6300B6
:10396000646863705F6F7074696F6E5F6C6F6E67B1
:103970003A206F7074696F6E735F6F75745F6C65FA
:103980006E202B2034203C3D20444843505F4F5054
:1039900054494F4E535F4C454E00000041737365D0
:1039A0007274696F6E2022257322206661696C65CE
:1039B00064206174206C696E6520256420696E2026
:1039C00025730A0070B504460E461546A01C44280F
:1039D00006D907A340F2AD5210A11FA0FFF74EF881
:1039E000290A601C83B23155581C80B2F55470BD51
:1039F0002E2E5C2E2E5C4D6964646C657761726559
:103A0000735C6C7769705C7372635C636F72655C26
:103A1000697076345C646863702E630064686370F8
:103A20005F6F7074696F6E5F73686F72743A206F46
:103A30007074696F6E735F6F75745F6C656E202B49
:103A40002032203C3D20444843505F4F5054494F62
:103A50004E535F4C454E0000417373657274696F3D
:103A60006E2022257322206661696C656420617472
:103A7000206C696E6520256420696E2025730A001C
:103A800030B404461046FF25621C93B20D55002445
:103A900003E01D465B1C9BB24C55442B01D39D0794
:103AA00001D0442BF5D3F03330BC99B208F094BA6E
:103AB0002DE9F34F85B04FF0000B00200390A14992
:103AC000C8600861059840892C2804D26FF0010075
:103AD00007B0BDE8F08FF0270598B0F80890059E74
:103AE000049706E0391A8FB2A9EB00001FFA80F99B
:103AF000366816B17089B842F4D916B1D6F804A068
:103B0000E6E06FF00100E3E74FF0FF34B81C1FFA66
:103B100080F8B84501D26000DAE77389781C024664
:103B2000834203D90AEB0700407805E0306810B102
:103B30004068007800E000200546342933D007DCD7
:103B4000C1B1012919D003291ED0332908D123E09E
:103B5000352935D036293BD03A2940D03B2945D0AC
:103B6000002591B33844801CB0F5803F47D36FF0F7
:103B70000100ADE700200546F3E7042802D06FF00E
:103B80000500A5E70624ECE70425042802D26FF01F
:103B900005009DE70724E4E7042802D06FF0050044
:103BA00096E70324DDE7012802D06FF005008FE7D8
:103BB000049BF02B02D06FF0050089E70024D0E7CA
:103BC000012803D06FF0050082E716E00124C8E762
:103BD000042802D06FF005007AE70224C1E7042828
:103BE00002D06FF0050073E70424BAE7042802D07E
:103BF0006FF005006CE70524B3E797B259E087B290
:103C0000E5B300200290082C06D34FA340F279625E
:103C100058A15DA0FEF732FF4A480C30005D68BB3A
:103C2000042D01D2284600E004200190434602A959
:103C30003046019A07F0F9FF01460198814202D00F
:103C40006FF0010044E7042D1CD9A80702D06FF0E3
:103C500005003DE73B4901200C310855029806F06C
:103C60004DFA534941F824002D1FEDB208F104002C
:103C700080B2404503D26FF0010029E719E0804689
:103C8000641CC0E7042D04D0012D07D06FF005009F
:103C90001EE7029806F032FA029002E09DF8080052
:103CA0000290284801210C3001554148029940F802
:103CB00024107089B8420BD8391A8FB2A9EB0000D2
:103CC0001FFA80F94F451DD23668C6B1D6F804A058
:103CD00036B14F4504D21AF80710FF297FF414AF0C
:103CE00018490C310878C8B13148006800220A70C0
:103CF00001280AD002280BD003280CD00EE06FF068
:103D00000500E5E66FF00100E2E64FF0010B05E08B
:103D10000120039002E0012003908346BBF1000FD5
:103D200005D04FF0000B6C274FF0EC09D7E6039855
:103D300028B1002003902C274FF06C09CFE600201B
:103D4000C6E60000480200202E2E5C2E2E5C4D6937
:103D500064646C6577617265735C6C7769705C73C1
:103D600072635C636F72655C697076345C6468630F
:103D7000702E6300636865636B206465636F6465C0
:103D80005F69647800000000417373657274696F45
:103D90006E2022257322206661696C65642061743F
:103DA000206C696E6520256420696E2025730A00E9
:103DB000143401202DE9FC478046D8F82450042112
:103DC000284600F0C1FA01AB032229464046FFF71E
:103DD000CDF90746380037D079680223F03139220F
:103DE0008946BDF80400FFF7E9FC0190B8F82820E7
:103DF0004946FFF7E7FD0190032337224946FFF7C5
:103E0000DDFC019000241E4E4946BDF80400325DE1
:103E1000FFF71AFD0190641CE4B2032CF4D33A4678
:103E20004946BDF80400FFF72BFE1548CDF8008089
:103E3000401E4323134A394680680EF0F5FD0446C0
:103E4000384607F0DBFF01E04FF0FF34A879FF2888
:103E500001D2401CA871A8790A2803D24FF47A71C4
:103E6000484301E042F2107080B200F2F3104FF4C8
:103E7000FA71B0FBF1F028812046BDE8FC87000014
:103E800049020020E48501082DE9FC478046D8F866
:103E900024500321284600F057FA01AB032229469B
:103EA0004046FFF763F90746380047D07968022398
:103EB000F03139228946BDF80400FFF77FFC0190FC
:103EC0004FF410724946FFF77DFD01900423322222
:103ED0004946FFF773FC0190E86906F00FF90246C6
:103EE0004946BDF80400FFF707FD01900323372280
:103EF0004946FFF763FC019000241E4E4946BDF879
:103F00000400325DFFF7A0FC0190641CE4B2032CB6
:103F1000F4D33A464946BDF80400FFF7B1FD154811
:103F2000CDF80080401E4323134A394680680EF0C6
:103F30007BFD0446384607F061FF01E04FF0FF3497
:103F4000A879FF2801D2401CA871A8790A2803D2B9
:103F50004FF47A71484301E042F2107080B200F2EF
:103F6000F3104FF4FA71B0FBF1F028812046BDE860
:103F7000FC87000049020020E48501082DE9F0419A
:103F800016463A4845686C6A7168002C68D02079FA
:103F9000002865D070892C2862D3087802285FD168
:103FA000002095F8302008E02B180F1893F82A30DD
:103FB0003F7FBB4254D1401CC0B2824201D9062887
:103FC000F2D3486806F09AF82168884248D1214621
:103FD0003046FFF76DFDF8B925484078E0B17268CA
:103FE00024480079052802D0062822D02AE06079EA
:103FF000012806D0032814D0042812D0052810D098
:104000002EE011462846FFF7A5FA95F83100000783
:1040100003D52846FFF75EF822E02846FEF7F3FFB7
:104020001EE011462846FFF795FA2846FEF7EBFFFB
:1040300016E06179032908D0012906D0042904D0AB
:10404000052902D0022804D00AE02846FFF7B8FA72
:1040500006E06079062803D111462846FFF7C4FA26
:104060003046BDE8F04107F0C9BE0000405C0020CA
:1040700054020020143401202DE9FE4307467C6AD7
:10408000002C56D06079002853D0A06902900025FA
:10409000A561E561256265622563E562A562A58289
:1040A00065822582E581384600F09BF9B0B3002196
:1040B000204600F049F901AB072221463846FFF7B8
:1040C00055F80646300022D071680423F0313622BC
:1040D0008846BDF80400FFF771FB0190029806F0D6
:1040E0000DF802464146BDF80400FFF705FC0190BB
:1040F00032464146FFF7C4FC0F480097432302AA0B
:10410000314680680EF090FC304607F077FE0B4B8E
:1041100038461A46114607F037FA04E0FFE7002157
:10412000204600F011F92079002802D0FFF7E2F8CC
:104130002571BDE8FE83000048020020E0850108EB
:104140002DE9FC478046D8F824500521284600F088
:10415000FBF801AB032229464046FFF707F8074664
:10416000380038D079680223F03139228946BDF809
:104170000400FFF723FB0190B8F828204946FFF719
:1041800021FC0190032337224946FFF717FB0190DA
:1041900000241E4E4946BDF80400325DFFF754FB73
:1041A0000190641CE4B2032CF4D33A464946BDF8AE
:1041B0000400FFF765FC1548CDF80080401E43233E
:1041C00005F11802394680680EF02EFC0446384688
:1041D00007F014FE01E04FF0FF34A879FF2801D268
:1041E000401CA871A8790A2803D24FF4FA61484309
:1041F00001E044F6206080B200F2F3104FF4FA714F
:10420000B0FBF1F028812046BDE8FC874902002080
:104210002DE9FE430646002E69D0756A002D6AD04E
:104220000121284600F090F802AB032229463046CF
:10423000FEF79CFF80465FEA08005FD0D8F80410C4
:104240000223F03139228946BDF80800FFF7B6FA9B
:104250000290328D4946FFF7B5FB029004233222CB
:104260004946FFF7ABFA0290E86905F047FF0246BE
:104270004946BDF80800FFF73FFB029004233622B1
:104280004946FFF79BFA0290A86905F037FF0246FE
:104290004946BDF80800FFF72FFB029003233722A1
:1042A0004946FFF78BFA02900024244F4946BDF897
:1042B00008003A5DFFF7C8FA0290641CE4B2032CD0
:1042C000F4D342464946BDF80800FFF7D9FB1C4825
:1042D0004323CDE9006019481A4A401E41468068D0
:1042E0000EF0C8FB0446404607F088FD08E06FF07A
:1042F0000F00BDE8FE836FF00500FAE74FF0FF34D2
:10430000A879FF2801D2401CA871A979062902D2F8
:104310000120884000E03C2000EB4001C1EBC010D0
:104320004FF6FF7101EAC00000F2F3104FF4FA718A
:10433000B0FBF1F028812046DBE7000049020020B5
:10434000E0850108E485010842798A4203D0417181
:10435000002181710181704770B505466FF00F0132
:10436000002D0BD095F83100C00709D06C6A288D5C
:104370000E11B0F5107F05D2304670BD084670BDF5
:10438000084670BD64B1207908B1FEF7B3FF34214F
:104390002046FBF7E2FFFFF743F950B1304670BD0E
:1043A000342006F061FB04460CB16C62EFE7304646
:1043B00070BD0120207195F83100400705D402211D
:1043C0002046FFF7C1FF002070BD2846FFF736F8F2
:1043D0000028F9D02846FFF74FFE304670BDFFF7A2
:1043E0004BBE00280CD0406A50B140790A2805D055
:1043F000052803D0042801D0002070470120704711
:104400000020704710B5446A6179012903D00A2958
:1044100001D005290AD1FFF793FEA089618A401ACD
:10442000022803DB00EBD0704008E08110BD10B51E
:10443000446A6179012905D00A2903D0052901D0F0
:1044400004290AD1FFF7B6FCA08A618A401A022823
:1044500003DB00EBD0704008208210BD10B504468D
:10446000616A4A790C2A0FD0062A0DD0012A10D091
:10447000082A1ED0032A2ED18879022826D2204667
:10448000BDE81040FFF700BD2046BDE81040FEF734
:10449000D5BF8879052804D82046BDE81040FFF72D
:1044A000B7BE2046FFF7E8FD2046BDE81040FFF705
:1044B00053BF8879012804D82046BDE81040FEF794
:1044C00009BE2046BDE81040FEF79DBD2046BDE870
:1044D0001040FEF7B3BF10BD70B505460C46A007EF
:1044E00006D009A34FF4B67211A119A0FEF7C6FABF
:1044F00008F0AAFFA96809682160A9680C60BDE8F6
:10450000704008F0A6BF00002E2E5C2E2E5C4D6978
:1045100064646C6577617265735C6C7769705C73F9
:1045200072635C636F72655C6D656D702E63000015
:104530006D656D705F667265653A206D656D2070A2
:10454000726F7065726C7920616C69676E6564006A
:10455000417373657274696F6E2022257322206621
:1045600061696C6564206174206C696E65202564E6
:1045700020696E2025730A0070B5044608F064FFB8
:104580000546A0680468002C0FD021680160A007D0
:1045900006D008A34FF48C7210A119A0FEF76EFA92
:1045A000284608F056FF204670BD284608F051FF07
:1045B000002070BD2E2E5C2E2E5C4D6964646C65EF
:1045C00077617265735C6C7769705C7372635C634E
:1045D0006F72655C6D656D702E6300006D656D704A
:1045E0005F6D616C6C6F633A206D656D70207072E9
:1045F0006F7065726C7920616C69676E656400002C
:10460000417373657274696F6E2022257322206670
:1046100061696C6564206174206C696E6520256435
:1046200020696E2025730A0038B5002100910368C7
:1046300044696A4611211846A047002802DA6FF043
:10464000040038BD009844F21001814303D0820475
:1046500001D5022038BD09B1032038BDC00501D401
:10466000042038BD052038BD2DE9F843044600205C
:10467000009000260025606800284DD1A06800B198
:104680008047202020606FF0040763696A4611218B
:1046900030469847002801DA3D4607E0009800F0D0
:1046A0001F00B04202D12660002502E0761C1F2EBA
:1046B000EBD920681F2801D96FF0020505BB2369DB
:1046C0004FF4004200219847002823DB63696A46C3
:1046D00000212068984700281ADBA0698047064619
:1046E0004FF4FA7810E0A0698047801B404508D855
:1046F00063696A46002120689847002804DA3D462D
:104700000AE06FF0010507E000980004EBD403E035
:104710003D4601E06FF003055DB9A069804706469C
:104720004FF4FA67A0698047801BB842FAD901208C
:1047300060602846BDE8F883002811D0CA687AB1C5
:104740008A686AB10A695AB10A6882604A68C260B6
:10475000CA6842618A680261096981610020704704
:104760004FF0FF30704738B5044600200090002518
:1047700063696A4600212068984700280BDB00988F
:1047800040F4805200922369002120689847002855
:1047900003DA2D1F01E06FF00405284638BD000044
:1047A00070B505460024084E04EB440006EBC0003B
:1047B000017D29B18068A84202D1204600F038F975
:1047C000641C0A2CF0DB70BD343401202DE9F74F56
:1047D00084B080464FF00A0AD1460A270024BB461F
:1047E0000020029001900090544904EB440001EB3A
:1047F000C0060390357D0A2F01D1002D1ED0002D5B
:1048000028D0012D08D0022D06D24DA340F223124C
:1048100057A167A0FEF732F9B8F1000F10D0D8F811
:104820000000716888420BD1069818B1B1680698EB
:10483000814205D1204607B0BDE8F08F274609E048
:10484000012D13D0022D05D3708A0099884201D31F
:10485000A1460090641C24B20A2CC5DB05984FF0D9
:10486000FF3180071CD40A2F13D015E03348039979
:1048700050F8310030B1708A02998842EAD3A346D9
:104880000290E7E7708A01998842E3D3A24601903B
:10489000E0E70598C00703D00A2F03DA3C4628E07A
:1048A0000846C8E7B9F10A0F0EDA4C46234804EB74
:1048B000440150F8310080B121A340F26D1246A1AD
:1048C0003BA0FEF7DBF808E0BAF10A0F01DA544624
:1048D00003E0BBF10A0F2FDA5C460A2C06DB18A3B3
:1048E00040F27F1242A132A0FEF7C8F8204600F045
:1048F0009FF80A2C06DB12A340F283123CA12CA0E5
:10490000FEF7BCF80D4804EB440100EBC105287D1F
:1049100030B10BA34FF4C2723AA125A0FEF7AEF856
:10492000B8F1000F02D0D8F800006860002068825B
:104930000698A86020467EE708467CE734340120CC
:104940002E2E5C2E2E5C4D6964646C6577617265F9
:10495000735C6C7769705C7372635C636F72655CC7
:10496000697076345C6574686172702E6300000053
:104970007374617465203D3D204554484152505F39
:1049800053544154455F50454E44494E47207C7C2A
:10499000207374617465203E3D2045544841525057
:1049A0005F53544154455F535441424C450000000D
:1049B000417373657274696F6E20222573222066BD
:1049C00061696C6564206174206C696E6520256482
:1049D00020696E2025730A006172705F7461626CD9
:1049E000655B695D2E71203D3D204E554C4C0000AD
:1049F00069203C204152505F5441424C455F53492D
:104A00005A4500006172705F7461626C655B695D3C
:104A10002E7374617465203D3D20455448415250C9
:104A20005F53544154455F454D50545900000000B8
:104A300070B5084D00EB4004002655F834000028FE
:104A400003D007F0DBF945F8346005EBC4000675C8
:104A500070BD0000343401202DE9F04387B00746D3
:104A60000D46002D11D07C684FF480782088404599
:104A700008D12079062805D16079042802D1608800
:104A8000082805D0384607F0B9F907B0BDE8F0832B
:104A9000D4F80E000690A0690590696819B18842A3
:104AA00003D1012602E0002600E000260EB101231A
:104AB00000E0022304F10802914606A9284600F00E
:104AC0007FFBE088404503D0B0F5007F14D10FE0B4
:104AD00096B106AACDE901920221281D05F12A030B
:104AE0000391009019464A46284600F06DFA03E00B
:104AF00006A92846FEF778FA384607F07FF9C4E79A
:104B0000FEB504460E461546002C06D145A340F2DC
:104B10001E3250A153A0FDF7B1FF36B941A340F2B8
:104B20001F325AA14FA0FDF7A9FF280006D13DA3CF
:104B30004FF4487258A14BA0FDF7A0FF214628680A
:104B400000F029FF08B1584B3FE02868C0F303117B
:104B50000E2925D0A168636800EA01020B409A4241
:104B600008D080B2A0F57E41A93903D0E068B0B387
:104B700004F10C054D4B4E491A7802EB420001EB53
:104B8000C000077D022F2ED38768A7422BD12F6844
:104B90004068874227D13146204600F08BF8FEBDA1
:104BA00001208DF8040000208DF805005E208DF8AE
:104BB0000600687800F07F008DF80700A8788DF86F
:104BC0000800E8788DF8090001AB4FF40060009010
:104BD00004F12A023146204600F00AFCFEBDFFE740
:104BE0006FF00300FAE7002202EB420001EBC00085
:104BF000077D022F0CD38768A74209D12F68406830
:104C0000874205D11A703146204600F053F8E5E797
:104C1000521CD2B20A2AE7D332462946204600F077
:104C2000D1F8DBE72E2E5C2E2E5C4D6964646C653A
:104C300077617265735C6C7769705C7372635C63D7
:104C40006F72655C697076345C6574686172702E31
:104C5000630000006E6574696620213D204E554C4E
:104C60004C000000417373657274696F6E202225D9
:104C70007322206661696C6564206174206C696EC2
:104C80006520256420696E2025730A007120213D6E
:104C9000204E554C4C000000697061646472202104
:104CA0003D204E554C4C0000E88501085C02002078
:104CB000343401202DE9F84306460F4615461E48B8
:104CC00005EB450100EBC104207D022806D21BA3A1
:104CD00040F2EE2225A131A0FDF7D0FE164A05EBE9
:104CE0004501207D02EBC1050C35022818D1618AEF
:104CF0004FF00308B1F58E7F07D9211D304600F033
:104D000019FA68B984F814800AE0B1F5877F07D3EF
:104D10002A46211D304600F013FA08B984F81480A1
:104D20004FF4006000902B4606F12A0239463046C7
:104D300000F05EFBBDE8F883343401202E2E5C2E9B
:104D40002E5C4D6964646C6577617265735C6C7729
:104D500069705C7372635C636F72655C69707634F2
:104D60005C6574686172702E630000006172705F30
:104D70007461626C655B6172705F6964785D2E73EB
:104D800074617465203E3D204554484152505F5344
:104D9000544154455F535441424C4500417373653F
:104DA0007274696F6E2022257322206661696C65BA
:104DB00064206174206C696E6520256420696E2012
:104DC00025730A002DE9FC5F8246884617460AF1E2
:104DD0002A0001904FF0FF3600245146D8F8000019
:104DE00000F0D9FDA0B9D8F80000C0F303110E29D6
:104DF0000ED0B8F1000F0BD050B152460121404601
:104E0000FFF7E4FC0546002D05DA68B2BDE8FC9F1B
:104E10006FF00F00FAE77F2D06D33EA340F2C132B8
:104E200048A14CA0FDF72AFE05F0FF0B53480BEB01
:104E30004B0900EBC905297D21B901240121297500
:104E4000C5F808A0287D012808D0022806D231A381
:104E500040F2CD324AA13FA0FDF710FE04B96FB970
:104E60004146504600F066F90646300005D1287DDF
:104E7000012802D10CB9002068829FB1287DDFF89B
:104E8000FC80022810D3484880F800B04FF400603E
:104E9000009005F10C0339465046019A00F0A8FA3B
:104EA000064634E03046B1E7012830D100253C46C3
:104EB00040F2F93611E060892189884207D12068E3
:104EC00028B114A3324639A122A0FDF7D7FD207BDB
:104ED000400601D5012502E02468002CEBD13DB14C
:104EE0003A464FF420710E2006F04AFE074602E0D3
:104EF000384607F007F947B158F8390008B106F00D
:104F00007DFF48F83970002601E04FF0FF3630464B
:104F10007CE700002E2E5C2E2E5C4D6964646C656F
:104F200077617265735C6C7769705C7372635C63E4
:104F30006F72655C697076345C6574686172702E3E
:104F40006300000074797065206F766572666C6F1F
:104F500077000000417373657274696F6E202225BB
:104F60007322206661696C6564206174206C696ECF
:104F70006520256420696E2025730A0034340120E1
:104F80006172705F7461626C655B695D2E737461E0
:104F90007465203D3D2050454E44494E47206F7278
:104FA00020535441424C45005C0200206E6F20703B
:104FB00061636B65742071756575657320616C6CD8
:104FC0006F776564210000002DE9FF4F81B0064630
:104FD000DDE90FABDDF838901F464FF00008002EDA
:104FE00006D12CA340F25F4236A13AA0FDF746FD60
:104FF0004FF420721C210E2006F0B0FB054628005D
:1050000044D068891C2806D222A340F26A423BA100
:1050100030A0FDF733FD6C68119805F07BF8E08057
:1050200096F83000062806D01AA340F27142404993
:1050300028A0FDF723FD3868A060B888A081DAF8C1
:105040000000C4F81200BAF80400E082D9F80000A9
:10505000C4F80E00DBF80000A0614FF480702080DF
:1050600008206080062020710420607140F6060050
:10507000DDE9022300902946304600F0B9F92846C0
:1050800006F0BCFE404605B0BDE8F08F4FF0FF30A3
:10509000F9E700002E2E5C2E2E5C4D6964646C6571
:1050A00077617265735C6C7769705C7372635C6363
:1050B0006F72655C697076345C6574686172702EBD
:1050C000630000006E6574696620213D204E554CDA
:1050D0004C000000417373657274696F6E20222565
:1050E0007322206661696C6564206174206C696E4E
:1050F0006520256420696E2025730A006368656356
:105100006B207468617420666972737420706275B4
:10511000662063616E20686F6C64207374727563BF
:1051200074206574686172705F68647200000000CA
:1051300018880108014A00F003B80000E88501085A
:105140007FB5064D031D0124CDE90035CDE90214DC
:1051500026331946FFF738FF04B070BDEE8501080D
:1051600070B50024154D04EB440005EBC002117D21
:10517000F9B1508A401C80B25082B0F5967F03D2BC
:10518000012905D1052803D32046FFF751FC10E083
:10519000032904D0042905D0012906D009E0042000
:1051A000107506E00220107503E0111D9068FFF7EE
:1051B000C1FF641C0A2CD6DB70BD00003434012012
:1051C000F8B504460D4616461F4694F830000628EA
:1051D00006D020A340F2A9122AA133A0FDF74EFC6D
:1051E0009DB1286888B1214600F0D5FB68B92878C0
:1051F000C0F303100E2808D0224639462846FFF790
:10520000E5FA002804DA40B2F8BD6FF00F00F8BDEF
:105210002F4A00EB400102EBC100022303758460BA
:105220003368C360B38803820023438252F831504D
:1052300075B142F831304FF400600090334604F10C
:105240002A022946204600F0D3F8284606F0D6FD6B
:105250000020F8BD2E2E5C2E2E5C4D6964646C65BA
:1052600077617265735C6C7769705C7372635C63A1
:105270006F72655C697076345C6574686172702EFB
:10528000630000006E657469662D3E687761646432
:10529000725F6C656E203D3D204554485F48574124
:1052A0004444525F4C454E00417373657274696F9C
:1052B0006E2022257322206661696C65642061740A
:1052C000206C696E6520256420696E2025730A00B4
:1052D0003434012010B5112000F0FEF8C0F3803006
:1052E00010BD00001CB5154801788DF800104178FC
:1052F0008DF8011081788DF80210C1788DF80310B7
:1053000001798DF8041040798DF805000D480C499D
:105310000160C0F804D04FF40001816000F1B001D9
:105320000161A031C1604FF47A714161FBF768FE01
:1053300008B101201CBD00201CBD0000D07201205E
:1053400000800240D00400202DE9F04104460D46C3
:105350000E2760890E283DD9E07B18B995F83400F6
:10536000401CE073606886890178CA0715D001295E
:1053700005D006221D49FAF7FBFF50B10DE0417838
:1053800059B980785E2808D1607B40F010006073C6
:1053900003E0607B40F008006073082E03D0B6F590
:1053A000C16F17D10DE095F83100000712D53946CD
:1053B000204606F0F1FE68B92946204600F02AFC96
:1053C00012E095F83100000704D53946204606F072
:1053D000E3FE28B1204606F011FD0020BDE8F08173
:1053E00029462046FFF738FB0020F7E7E88501084B
:1053F0002DE9F04106460F4615461C46069804F076
:1054000089FE80460E21384606F041F918B16FF04A
:105410000100BDE8F0817868A0F80C802168016087
:10542000A18881802968C0F80610A988418196F872
:105430003000062806D006A34FF499720FA11CA0D5
:10544000FDF71CFB39463046B269BDE8F041104714
:105450002E2E5C2E2E5C4D6964646C6577617265DE
:10546000735C6C7769705C7372635C6E657469669B
:105470005C65746865726E65742E63006E65746930
:10548000662D3E6877616464725F6C656E206D7531
:105490007374206265203620666F722065746865BB
:1054A000726E65745F6F7574707574210000000012
:1054B000417373657274696F6E20222573222066B2
:1054C00061696C6564206174206C696E6520256477
:1054D00020696E2025730A0008B502466B4600213C
:1054E0000248FBF744FF009808BD0000D0040020EC
:1054F00010B50446002C06D10AA34FF4B97214A1CA
:1055000017A0FDF7BBFA732084F83200742084F8EA
:1055100033001D4860611D48A061204604F004FC72
:10552000002010BD2E2E5C2E2E5C4D6964646C65CF
:1055300077617265735C6C7769705C617263685CDB
:1055400065746865726E657469662E63000000009C
:105550006E6574696620213D204E554C4C0000005C
:10556000417373657274696F6E2022257322206601
:1055700061696C6564206174206C696E65202564C6
:1055800020696E2025730A00014B0008F59E000873
:1055900005460C4E4FF0FF373946B0680FF010FB50
:1055A0000128F9D1284604F093FC04463CB12A694D
:1055B00029462046904710B1204606F01FFC002CDB
:1055C000F0D1E9E76802002003490A685206FCD5D9
:1055D000C2B24A6070470000001001401CB5074885
:1055E0000521CDE900100023802205A107480FF016
:1055F00047FCBDE81C400EF09FBE000004000020E8
:1056000073746172745F7461736B0000D5D10008AC
:105610000A46032100F00AB92DE9FE4F04468846E8
:10562000514FD7F808A09AF800000007860E142EF4
:105630007ED360890428FBD360680178002978D084
:10564000082976D107F114097869C0F303110E29EE
:105650005CD0396800F09FF9002857D120890828CC
:105660007DD3204600F072F920B12046BDE8FE4F00
:1056700006F0C4BB06F10E010D46204606F007F801
:10568000002838D02089811989B288423ED84FF449
:1056900020720E2006F062F80546002D36D069898A
:1056A00006F10800814203D2284606F0A7FB2DE050
:1056B000324651466868FAF729FE3146284606F018
:1056C0006BFD002809D029A3B62233A140A0FDF725
:1056D000D5F9284606F092FB18E02146284606F048
:1056E0009BFA18B1284606F089FB0FE0204606F029
:1056F00085FB2C460FE02946204606F04DFD50B1B3
:105700001AA3C7223CA132A0FDF7B8F92046BDE894
:10571000FE4F06F073BB65683146204605F0B7FFC3
:1057200038B96068D9F80010C1603969016101E0D9
:1057300015E00FE0002129706980FF22027241818B
:105740000120CDE901080091FF23002249462046AF
:1057500000F056FB2046BDE8FE4F06F04FBB20464A
:10576000BDE8FE4F06F04ABB405C00202E2E5C2EAA
:105770002E5C4D6964646C6577617265735C6C77EF
:1057800069705C7372635C636F72655C69707634B8
:105790005C69636D702E630069636D705F696E7024
:1057A00075743A206D6F76696E6720722D3E706158
:1057B000796C6F616420746F2069636D7020686517
:1057C00061646572206661696C65640A00000000AE
:1057D000417373657274696F6E202225732220668F
:1057E00061696C6564206174206C696E6520256454
:1057F00020696E2025730A0069636D705F696E70A1
:1058000075743A20726573746F72696E67206F7277
:105810006967696E616C20702D3E7061796C6F6193
:1058200064206661696C65640A0000002DE9FF4729
:105830000746884691461C2638891C2800D2064611
:1058400006F10800044681B24FF42072222005F0D0
:1058500085FF0546280032D06889A04206D219A3E8
:105860004FF4B77222A12DA0FDF708F9D7F804A0D4
:105870006C6884F8008084F801904FF00008A4F868
:105880000480A4F806806868796808303246FAF720
:105890003DFDDAF80C00039003A800F0A1FC58B11C
:1058A000A4F802800121CDE900810290FF2303AA20
:1058B0000021284600F0A4FA284606F09FFABDE829
:1058C000FF8700002E2E5C2E2E5C4D6964646C6593
:1058D00077617265735C6C7769705C7372635C632B
:1058E0006F72655C697076345C69636D702E6300FD
:1058F000636865636B207468617420666972737491
:1059000020706275662063616E20686F6C64206928
:10591000636D70206D6573736167650041737365B6
:105920007274696F6E2022257322206661696C652E
:1059300064206174206C696E6520256420696E2086
:1059400025730A000A460B21FFF770BF70B50546A4
:105950000026002412E06989686804F005FE2044EE
:1059600081B201EB1044A87AC00706D08EB10026A0
:10597000E0B2C4F3072141EA00242D68002DEAD1EA
:1059800026B1E0B2C4F3072141EA0024E04380B22B
:1059900070BD0126ECE708B50090421C07D002005C
:1059A00005D091F83120920703D4002008BD0120D2
:1059B00008BD4A68824201D1002008BD896800EA1A
:1059C00001030A40934202D10143491C01D0002047
:1059D00008BD012008BD00002DE9F74F88B004463E
:1059E00000270998008D1438C11700EB5170C0F3DF
:1059F000CF0005901425606807900798BA1F0178BA
:105A000001F00F01052903D010460BB0BDE8F08F5F
:105A10006189142901D21046F7E7C08804F07AFBA7
:105A2000C0F30C01039100F4005002902089143857
:105A30001FFA80F8A2E005984FF6FF7101EAC00056
:105A4000404500D9404604904FF4207214210E20A6
:105A500005F084FE82465FEA0A0063D0BAF80A00C5
:105A6000142806D248A34FF4497253A15AA0FDF757
:105A700005F81422DAF804000799FAF747FCDAF877
:105A800004000690049E34E06089411B8FB2A84256
:105A900006D23DA340F22D3259A14FA0FCF7EEFFF4
:105AA000BE4200D237467FB300F013FC81465FEA66
:105AB00009002DD060684B462844CDE900074122FB
:105AC0003946002005F0BAFF8346BBF1000F23D012
:105AD000204606F017FBC9F814404D48C9F81000DD
