:020000040800F2
:100000003008002005010008290E0008730C0008C4
:10001000250E0008B9090008DF1C000800000000D8
:100020000000000000000000000000003116000881
:10003000BD09000800000000D9140008CB17000813
:100040001F0100081F0100081F0100081F01000810
:100050001F0100081F0100081F0100081F01000800
:100060001F0100081F0100081F0100081F010008F0
:100070001F0100081F0100081F0100081F010008E0
:100080001F0100081F0100081F0100081F010008D0
:100090001F0100081F0100081F0100081F010008C0
:1000A0001F0100081F0100081F0100081F010008B0
:1000B0002D1800081F0100081F0100081F0100087B
:1000C0001F0100081F0100081F0100081F01000890
:1000D0001F010008B51900081F0100083D1A00089B
:1000E0001F0100081F0100081F010008DFF810D0E1
:1000F00000F02CFA0048004751260008AFF30080BA
:10010000300800200648804706480047FEE7FEE723
:10011000FEE7FEE7FEE7FEE7FEE7FEE7FEE7FEE7B7
:10012000CD170008ED00000830B505462A460B46FD
:1001300012F8010B13F8014B08B1A042F8D01CB122
:10014000002802D06D1CF1E7284630BD30B50B46C3
:10015000014600202022012409E021FA02F59D42F7
:1001600005D303FA02F5491B04FA02F52844151ECB
:10017000A2F10102F1DC30BD2DE9F05F054600205F
:1001800092469B4688460646814640241BE0284608
:1001900041464746224600F0FAF953465A46C01AED
:1001A000914110D311461846224600F0E1F92D1A6C
:1001B00067EB01084F4622460120002100F0D8F9E4
:1001C00017EB00094E41201EA4F10104DFDC484674
:1001D00031462A464346BDE8F09F2DE9FE4F804652
:1001E00081EA0300C00F0C46009021F0004123F08B
:1001F0000045B8EB0200A94105D240462146904691
:100200001C460B46024623F00040104347D0270D02
:10021000C7F30A00C3F30A510290401A0190402824
:100220006BDAC3F3130040F4801B0098924620B1B0
:100230000023D2EB030A63EB0B0B01985946C0F184
:100240004002504600F094F906460D465046594685
:10025000019A00F0ACF910EB08006141002487EA34
:10026000115284EAE7731A4340D0009A62B3019AAC
:10027000012A4FEA075215DC001B61EB02014FF027
:10028000004202EA0752CDE90042001C41F580110C
:1002900032462B4600F0ACF903B0BDE8F08F404683
:1002A0002146F9E7001B61EB0201001C41F58013B8
:1002B00000185B412018A2F5001747EB030140EA44
:1002C000D570B6196D4111E06D084FEA360645EA62
:1002D000C0754FEA0752001B61EB0201001C41F59B
:1002E000801149084FEA30000019514132462B462F
:1002F00003B0BDE8F04F00F06CB900980122400057
:100300000023D0EB020263EBE073009821464FEA32
:10031000E074B8EB000061EB0401E9E783F000430F
:100320005BE781F0004158E72DE9FE4F81EA0304C5
:1003300004F0004421F0004100944FF0000B23F042
:10034000004350EA01045ED052EA03045BD0C3F3D9
:100350000A54C1F30A552C44A4F2F3340194A0FBCF
:100360000254C1F3130141F48011C3F3130343F4A6
:10037000801301FB024400FB034E840A970A44EAFF
:10038000815447EA8357A4FB076802958D0A05FB51
:1003900007854FEA932C04FB0C542705029D4FEA76
:1003A000065847EA1637B5EB08056EEB070C870EC3
:1003B000920E47EA811742EA8312A7FB0201B6EBCD
:1003C0000B0164EB00042B0D43EA0C335E1844EB85
:1003D0001C50DA465146E7FB0201C5F313044FEA0D
:1003E0000B3343EA14534FEA0432019C43EA0603F9
:1003F000A4F10C040294009CCDE900B400F0F8F8DC
:1004000003B0BDE8F08F00200146F9E72DE9F04D7B
:1004100081EA030404F0004B21F0004514464FF03C
:10042000000A23F0004150EA050220D054EA0102FC
:100430001DD0C5F30A570246C5F31303C1F31300D9
:10044000C1F30A5640F4801543F48013A7EB060865
:10045000101BD64608F2FD3873EB050002D308F1F5
:10046000010801E092185B41B8F1000F03DA0020A7
:100470000146BDE8F08D00204FF480110646844609
:100480000EE0171B73EB050705D3121B63EB050387
:1004900006434CEA010C49084FEA300092185B41D0
:1004A00050EA0107EDD152EA030012D082EA0400BB
:1004B00083EA0501084305D0101BAB4106D2012297
:1004C000002306E000224FF0004302E06FF001023B
:1004D00053101AEB06004CEB085110EB0A0041EBED
:1004E0000B01BDE8F04D00F074B8C1F30A52C1F33E
:1004F000130140F2FF3341F480119A4202DA0020E6
:100500000146704740F233439A42A2F2334202DC82
:10051000524200F03CB800F02BB8000030B5041E89
:1005200071F1000404DB4FF00044404264EB010130
:10053000141E73F1000405DB1C464FF000435242C9
:1005400063EB0403994208BF904230BD064C074D4F
:1005500006E0E06840F0010394E807009847103493
:10056000AC42F6D3FFF7C6FD942F0008B42F000865
:10057000202A04DB203A00FA02F100207047914063
:10058000C2F1200320FA03F3194390407047202A58
:1005900004DB203A21FA02F00021704721FA02F32D
:1005A000D040C2F120029140084319467047202AEA
:1005B00006DBCB17203A41FA02F043EAE07306E08B
:1005C00041FA02F3D040C2F120029140084319469B
:1005D000704710B5141E73F1000408DA401C41F195
:1005E000000192185B411A4301D120F0010010BDB7
:1005F0002DE9F04D92469B4611B1B1FA81F202E02D
:10060000B0FA80F220329046FFF7B2FF04460F4660
:1006100040EA0A0041EA0B0153465A46084313D008
:10062000114653EA010019D0C8F140025046FFF7C5
:10063000AEFF05460E46504659464246FFF798FF24
:10064000084305D0012004E020463946BDE8F08D7E
:100650000020054346EAE0762C4337430A986305B9
:10066000E40AA0EB08000022FD0A44EA47540A30DD
:1006700002D500200146E9E7010510196941DDE9CD
:10068000084500196941BDE8F04DA2E72DE9F041A8
:10069000002700250EE1052F23D2DFE807F0032312
:1006A00043627F00701CC6B284A20121084600F09C
:1006B00059FD00F001FE044684B9012000F0D9FD87
:1006C00004463CB981A20121084600F04BFD0026FA
:1006D000012706E0204601F063F802E0204601F021
:1006E0005FF8C9E0701CC6B27CA20121084600F088
:1006F00039FD00F0E1FD044684B9022000F0B9FDA7
:1007000004463CB97AA20121084600F02BFD0026E0
:10071000022706E0204601F043F802E0204601F0FF
:100720003FF8A9E076A20121084600F01BFD00F089
:1007300069FE044634B975A20121084600F012FD95
:10074000032709E075A20121084600F00BFD2046B1
:1007500001F026F8002600274FF4FA7001F052FF4E
:100760008AE072A20121084600F0FCFC4FF4FA7006
:1007700001F048FF00F063FE044634B96FA2012186
:10078000084600F0EFFC042703E00027204601F0B4
:1007900007F84FF47A7001F035FF6DE000F07EFB52
:1007A0006BA20121084600F0DDFC6DA201210220B0
:1007B00000F0D8FC24E0002000F0B4FA6C49087086
:1007C00008460078022805D100200870002D01DDC0
:1007D000681EC5B266480078042806D10020644926
:1007E0000870632D01DA681CC5B262A201210320E2
:1007F00000F0B8FC02232A460421032000F090FCFC
:100800005B4800780328D6D1002059490870294652
:10081000022000F031FE044614BB00F03FFB56A25C
:100820000121084600F09EFC40F2DC5001F0EAFE97
:1008300000F034FB53A20121084600F093FC53A2C0
:100840000121022000F08EFC52A20121032000F0C1
:1008500089FC52A20121042000F084FCBDE8F08153
:1008600000F01CFB4FA20121084600F07BFC002792
:10087000204600F095FF00BF00BF4FF4C87001F0A4
:10088000C1FE0A2E16D100F009FB49A2012108463B
:1008900000F068FC3DA20121022000F063FC3DA2B3
:1008A0000121032000F05EFC3CA20121042000F0A5
:1008B00059FC00E0EFE600BF00BFCFE7202020207A
:1008C00050524553532020202000000020496465E9
:1008D0006E74696669656420200000002020205045
:1008E0007265737320616761696E202020000000CB
:1008F0002020202057616974696E67202020200025
:100900002020414741494E20200000002020202087
:1009100073756363657373202020200020202020DE
:100920006661696C656420202020000020204372ED
:10093000656174696E672020000000004372656184
:1009400074696E67205375636365737300000000FC
:10095000204B346164642020204B327375620000A8
:10096000202020204B33207361766520202020003A
:100970000000002049443D0020207361766564201A
:100980002020000054455354000000004B3120410A
:10099000444400004B332044454C00004B35205666
:1009A000455200005265747279696E67000000005C
:1009B00054696D656F75740000BFFEE770470000F5
:1009C00070B5002400F06AFA44A20121084600F044
:1009D000C9FB45A20121022000F0C4FB45A2012170
:1009E000032000F0BFFB44A20121042000F0BAFB69
:1009F0003FE0002000F096F944490870084600786E
:100A0000022805D100200870002C01DD601E84B290
:100A10003E480078042806D100203C490870632C29
:100A200001DA601C84B239480078012800D13AE02C
:100A300036480078052816D100203449087000F0A7
:100A4000FBFB05463DB900F029FA31A20121084619
:100A500000F088FB02E0284600F0A2FE40F2DC50E5
:100A600001F0D0FD1FE0022322460421032000F004
:100A700057FB264800780328BBD10121204600F00F
:100A8000A5FB05463DB900F009FA21A2012108465F
:100A900000F068FB02E0284600F082FE40F2DC50E5
:100AA00001F0B0FD00BF00F0F9F91DA201210846D8
:100AB00000F058FB1CA20121022000F053FB1CA2F5
:100AC0000121032000F04EFB1BA20121042000F0B5
:100AD00049FB00200D49087070BD00004B34616473
:100AE00064204B32737562004B352064656C206165
:100AF0006C6C000049443A004B316261636B204BDF
:100B000033636F6E6669726D0000000000000020A4
:100B10002020205375636365656465642020200090
:100B200054455354000000004B3120414444000020
:100B30004B332044454C00004B35205645520000B5
:100B40002DE9F04102460025002600200023002464
:100B5000002791F803C00CF00F0591F803C00CF0CA
:100B6000100CBCF1000F03D091F802C04CEA05054F
:100B700091F800C0BCF1000F31D0146800202BE0C8
:100B80004FF0010C0CFA00F3B1F800C00CEA0306B8
:100B90009E4220D183004FF00F0C0CFA03F7BC43A8
:100BA00005FA03FC4CEA040491F803C0BCF1280FD9
:100BB00006D14FF0010C0CFA00FCC2F814C00AE098
:100BC00091F803C0BCF1480F05D14FF0010C0CFAAD
:100BD00000FCC2F810C0401C0828D1D31460B1F842
:100BE00000C0BCF1FF0F34DD546800202EE000F19E
:100BF000080C4FF0010808FA0CF3B1F800C00CEA39
:100C000003069E4221D183004FF00F0C0CFA03F72C
:100C1000BC4305FA03FC4CEA040491F803C0BCF1A0
:100C2000280F05D100F1080C08FA0CF8C2F814805E
:100C300091F803C0BCF1480F07D100F1080C4FF048
:100C4000010808FA0CF8C2F81080401C0828CED31E
:100C50005460BDE8F0810246002093680B400BB160
:100C6000012000E0002070470AB1016100E041610D
:100C7000704700BFFEE700007CB50546EF208DF809
:100C8000000001208DF801001A480068000E8DF860
:100C9000020018480068000C8DF803001548008811
:100CA000000A8DF80400134800788DF8050007202D
:100CB0008DF8060000208DF807000F49088012E02B
:100CC000012001F09FFC0C48008800F4004050B166
:100CD00000200949088069460848FFF725FA0446BC
:100CE0000CB120467CBD681E80B2051EE8D100BF55
:100CF000F8E7000028000020240000201001002058
:100D000008B50121042000F009FC3E20ADF80000E8
:100D100048208DF8030069460148FFF711FF08BD20
:100D20000008014010B5044614B101203449087090
:100D300033480078002841D002213248FFF78BFF6A
:100D400098B104212F48FFF786FF70B108212D4884
:100D5000FFF781FF48B110212A48FFF77CFF20B13F
:100D600020212848FFF777FF40BB0A2001F04AFC0A
:100D700000202349087002212248FFF76CFF08B9C0
:100D8000012010BD04211F48FFF765FF08B90220AC
:100D9000F7E708211B48FFF75EFF08B90320F0E7DB
:100DA00010211848FFF757FF08B90420E9E7202170
:100DB0001448FFF750FF08BB0520E2E70221114865
:100DC000FFF749FF012819D104210E48FFF743FF1F
:100DD000012813D108210B48FFF73DFF01280DD151
:100DE00010210848FFF737FF012807D120210548C7
:100DF000FFF731FF012801D1014908700020C0E749
:100E0000220000200008014000BF0549098801F0C8
:100E100040010029F9D00249091D088070470000EF
:100E20000048004000BFFEE77047000070B5002199
:100E300000230F22C47804B3154C246804F4E06442
:100E4000C4F5E064210AC1F10403CA40447804FAFD
:100E500003F184781440214309010E4C0678A15512
:100E6000047804F01F050124AC4005786D11AD0035
:100E700005F1E025C5F8004109E0047804F01F05FC
:100E80000124AC40044D0678761145F8264070BD2B
:100E90000CED00E000E400E080E100E070B500242B
:100EA0000EE00021204600F0F0F8002504E00020CC
:100EB00000F07CF9681CC5B2802DF8DB601CC4B260
:100EC000082CEEDB70BD000008B50121082000F001
:100ED00025FB14208DF8030003208DF802004FF449
:100EE0008070ADF8000069460A48FFF729FE4FF40C
:100EF0000070ADF8000069460648FFF721FE0122A8
:100F000011020448FFF7B0FE012251020148FFF729
:100F1000ABFE08BD000C014070B50546002415E08D
:100F20008020204100EA05024FF400710E48FFF7CF
:100F30009BFE012211020C48FFF796FE00224FF49F
:100F400080710948FFF790FE601CC4B2082CE7DBF3
:100F5000012211020448FFF787FE00224FF480713E
:100F60000148FFF781FE70BD000C014010B5012261
:100F700051020A48FFF778FE012211020748FFF7E5
:100F800073FE00224FF400710448FFF76DFE00224B
:100F90004FF480710148FFF767FE10BD000C01405F
:100FA00010B500224FF400710648FFF75DFE0122E4
:100FB00011020448FFF758FE012251020148FFF7D1
:100FC00053FE10BD000C014070B5002406E0002562
:100FD00000E06D1CB5F57A7FFBD3641CB4F57A7F15
:100FE000F5D3FFF771FFAE2000F0D0F8D52000F068
:100FF000CDF8802000F0CAF8A82000F0C7F83F2004
:1010000000F0C4F8D32000F0C1F8002000F0BEF8D2
:10101000402000F0BBF8A12000F0B8F8C82000F094
:10102000B5F8DA2000F0B2F8122000F0AFF8812015
:1010300000F0ACF8CF2000F0A9F8D92000F0A6F815
:10104000F12000F0A3F8DB2000F0A0F8302000F041
:101050009DF8A42000F09AF8A62000F097F88D20C3
:1010600000F094F8142000F091F8AF2000F08EF812
:10107000FFF714FF70BD10B50246012000E0504399
:101080000B1EA1F10101FAD110BD70B505460C4649
:1010900045F0B00000F07AF8102141EA141000F099
:1010A00075F804F00F0000F071F870BD2DE9F04103
:1010B00005460E461746721ED206110E6A1E5206CD
:1010C000100EFFF7E2FF002409E0A7F12001134A08
:1010D00002EB0111085D00F069F8601CC4B2082C35
:1010E000F3DB721ED206110E6A1E012303EB4202CD
:1010F000D0B2FFF7CAFF00240BE0A7F12001074A96
:1011000002EB011204F10801505C00F04FF8601C82
:10111000C4B2082CF1DBBDE8F0810000A42900086E
:101120002DE9F04780460E4617461D46002415E07F
:10113000281B411E0A20FFF79EFFB7FBF0F00A2193
:10114000B0FBF1F201FB120000F130093019C1B21D
:101150004A464046FFF7AAFF601CC4B2AC42E7DB38
:10116000BDE8F0872DE9F04107460E4615460024FC
:1011700007E02A5D3019C1B23846FFF797FF601CBF
:10118000C4B2285D0028F4D1BDE8F08110B5044652
:10119000FFF7ECFE7820FFF7BFFE0020FFF7BCFE54
:1011A0002046FFF7B9FEFFF7FBFE10BD10B5044661
:1011B000FFF7DCFE7820FFF7AFFE4020FFF7ACFE24
:1011C0002046FFF7A9FEFFF7EBFE10BD2DE9F04129
:1011D00004460D4600F057FA00F02CFA012000F00A
:1011E0004CFA072000F057FA0C2000F05EFA2012AB
:1011F000FFF70AFEE0B2FFF707FE2812FFF704FE32
:10120000E8B2FFF701FE142000EB2420E1B208440D
:1012100000EB2520E9B200EB0108404600F024FA7B
:101220004FF4FA60FFF728FD07460FB17E7A00E021
:10123000FF263046BDE8F08170B500F024FA00F0DA
:10124000F9F9012000F019FA032000F024FA0D202A
:1012500000F02BFA1126304600F006FA4FF4FA603F
:10126000FFF70AFD05460DB16C7A00E0FF24204629
:1012700070BD2DE9F041054600F005FA00F0DAF9FD
:10128000012000F0FAF9042000F005FA022000F035
:101290000CFA2846FFF7B8FDEF1D384600F0E4F9D8
:1012A0004FF4FA60FFF7E8FC06460EB1747A00E0EE
:1012B000FF242046BDE8F08170B500F0E4F900F0AD
:1012C000B9F9012000F0D9F9032000F0E4F9012078
:1012D00000F0EBF90526304600F0C6F94FF4FA604D
:1012E000FFF7CAFC05460DB16C7A00E0FF242046EA
:1012F00070BD000010B5044600F0C5F900F09AF981
:101300000120FFF781FD0020FFF77EFD0020FFF7A1
:101310007BFDC82001F076F91448008800F40040F5
:1013200008B313480078EF281AD1114840780128F3
:1013300016D10F488079072812D10D488078000611
:101340000B49C97800EB01400949097900EB0120FC
:10135000074949790844206000200449088010BDED
:101360000020024908800120F9E700002400002045
:10137000100100202DE9F04781460D4616461F4614
:1013800000F081F900F056F9012000F076F908200C
:1013900000F081F91B2000F088F94846FFF734FD82
:1013A0002812FFF731FDE8B2FFF72EFD3012FFF7EC
:1013B0002BFDF0B2FFF728FD09F1240000EB2520FA
:1013C000E9B2084400EB2620F1B200EB010A5046D6
:1013D00000F04AF94FF4FA60FFF74EFC044664B19E
:1013E00094F80980E07AA17A00EB01203880607BD4
:1013F000217B00EB0120788001E04FF0FF084046A0
:10140000BDE8F08770B500F03EF900F013F9012057
:1014100000F033F9032000F03EF9032000F045F915
:101420000726304600F020F94FF4FA60FFF724FC5D
:1014300005460DB16C7A00E0FF24204670BD70B502
:1014400000F021F900F0F6F8012000F016F9032071
:1014500000F021F9052000F028F90926304600F0B7
:1014600003F94FF4FA60FFF707FC05460DB16C7AFB
:1014700000E0FF24204670BD2DE9F04106460C46F1
:1014800000F001F900F0D6F8012000F0F6F806208F
:1014900000F001F9062000F008F93046FFF7B4FC2F
:1014A0002012FFF7B1FCE0B2FFF7AEFC06F10D0031
:1014B00000EB2420E1B200EB0108404600F0D4F834
:1014C0004FF4FA60FFF7D8FB07460FB17D7A00E0D2
:1014D000FF252846BDE8F0817047000029B1064A83
:1014E000D2690243044BDA6104E0034AD2698243C1
:1014F000014BDA61704700000010024029B1064A32
:1015000012690243044B1A6104E0034A12698243E0
:10151000014B1A61704700000010024029B1064AD1
:1015200092690243044B9A6104E0034A9269824340
:10153000014B9A61704700000010024029B1064A31
:10154000D2680243044BDA6004E0034AD268824363
:10155000014BDA60704700000010024030B50021F6
:101560000022002400232D4D6D6805F00C0121B1EF
:10157000042905D0082923D105E0294D056022E082
:10158000274D05601FE0254D6D6805F47012234D51
:101590006D6805F48034022505EB92421CB9214D9B
:1015A000554305600BE01D4D6D6805F400351DB118
:1015B0001C4D5543056002E0194D5543056002E09E
:1015C000174D056000BF00BF144D6D6805F0F001B8
:1015D0000909154D6B5C0568DD4045600F4D6D6870
:1015E00005F4E061090A104D6B5C4568DD408560DB
:1015F0000A4D6D6805F46051C90A0B4D6B5C456876
:10160000DD40C560054D6D6805F44041890B074D0F
:101610006B5CC568B5FBF3F5056130BD0010024099
:1016200000127A0000093D00320000204200002034
:101630007047000010B50B490968080EFFF7E4FB7E
:1016400008480068C0F30740FFF7DEFB0548008844
:10165000C0F30720FFF7D8FB02490878FFF7D4FB57
:1016600010BD00002800002010B504462012FFF72E
:10167000CBFBE0B2FFF7C8FB10BD10B50446204617
:10168000FFF7C2FB10BD10B5EF20FFF7BDFB012037
:10169000FFF7BAFB10BD10B50446C4F30720FFF7EF
:1016A000B3FBE0B2FFF7B0FB10BD10B50446204617
:1016B000FFF7AAFB10BD10B500F002F810BD000046
:1016C0000CB50020019000903348006840F4803051
:1016D0003149086000BF3048006800F400300090D5
:1016E0000198401C0190009818B90198B0F5A06FBE
:1016F000F1D12948006800F4003010B101200090B9
:1017000001E0002000900098012843D123480068A0
:1017100040F01000214908600846006820F00300EE
:1017200008600846006840F0020008601A484068F7
:10173000194948600846406848600846406840F4D7
:10174000806048600846406820F47C104860084685
:10175000406840F4E81048600846006840F0807037
:10176000086000BF0C48006800F000700028F9D045
:101770000948406820F0030007494860084640686F
:1017800040F00200486000BF0348406800F00C00D1
:101790000828F9D10CBD00000010024000200240D2
:1017A0007047042808D14FF0E021096941F0040195
:1017B0004FF0E022116107E04FF0E021096921F0CC
:1017C00004014FF0E02211617047704710B51348D3
:1017D000006840F00100114908600846406810495F
:1017E00008400E494860084600680E4908400B4909
:1017F00008600846006820F48020086008464068B9
:1018000020F4FE0048604FF41F008860FFF753FF8C
:101810004FF000600449086010BD00000010024055
:101820000000FFF8FFFFF6FE08ED00E010B5012113
:10183000880700F050F870B10748008840F4004075
:10184000054908800121880700F036F800214FF093
:10185000804000F034F810BD240000207FB505461C
:101860000C4601210846FFF739FEADF80450ADF8EB
:1018700000400020ADF80600ADF8020069464FF0C8
:10188000804000F045F801221146900700F034F83E
:101890000121880700F013F81C208DF80C000020AF
:1018A0008DF80D0002208DF80E0001208DF80F003C
:1018B00003A8FFF7BBFA7FBDCA430282704721B17C
:1018C000028842F00102028004E002884FF6FE73B3
:1018D0001A400280704730B50246002000230024E1
:1018E000158A05EA0103958905EA010413B10CB1D3
:1018F000012000E0002030BD1AB183890B438381B1
:1019000002E083898B4383817047818470470000A4
:10191000002202881D4B98420ED01D4B98420BD0DE
:10192000B0F1804F08D01B4B984205D01A4B98421B
:1019300002D01A4B984204D14FF68F731A404B884D
:101940001A43174B984207D0164B984204D04FF6D3
:10195000FF431A40CB881A4302808B8883850B880B
:1019600003850A4B98420BD0094B984208D00E4B86
:10197000984205D00D4B984202D00D4B984201D1B0
:101980000B7A03860123838270470000002C0140FC
:10199000003401400004004000080040000C0040FA
:1019A000001000400014004000400140004401408D
:1019B0000048014010B540F225511D4800F0CEF816
:1019C00010B31B4800F086F9C4B21A48008800F42E
:1019D0000040C8B91748008800F4804060B10A2C64
:1019E00003D000201349088020E01248008840F40A
:1019F00000401049088019E00D2C06D10D480088E0
:101A000040F480400B49088010E00A480088C0F389
:101A10000D0009490C5407480088401C05490880FE
:101A200008460088C72801DD0020088010BD00009E
:101A300000380140200000204800002010B540F28E
:101A40002551164800F08AF800B3144800F042F916
:101A5000C4B21348008800F40040B8B910480088A8
:101A6000B0F5C87F13DA00214FF08040FFF74DFF3B
:101A70000B48008818B901218807FFF720FF0849A3
:101A80000888411C064A118006490C5405E00448A8
:101A9000008840F400400249088010BD0048004022
:101AA000240000201001002021B1828942F400525C
:101AB000828104E082894DF6FF731A40828170476B
:101AC00010B504462048844209D101218803FFF75C
:101AD00035FD00214FF48040FFF730FD32E01B4818
:101AE000844209D101214804FFF708FD00214FF489
:101AF0000030FFF703FD25E01548844209D101219C
:101B00008804FFF7FBFC00214FF48020FFF7F6FC70
:101B100018E01048844209D10121C804FFF7EEFC07
:101B200000214FF40020FFF7E9FC0BE00A48844253
:101B300008D101210805FFF7E1FC00214FF48010D6
:101B4000FFF7DCFC10BD00000038014000440040FD
:101B500000480040004C00400050004070B5024674
:101B6000002400230025002040F66A16B14200D16F
:101B700000BFC1F3421501F01F03012606FA03F36B
:101B8000012D02D19689334006E0022D02D1168A3A
:101B9000334001E0968A33400C12012606FA04F421
:101BA0001688344013B10CB1012000E0002070BD54
:101BB000F0B50346002400260025002040F66A17F1
:101BC000B94200D100BF1846C1F3421401F01F060C
:101BD000012707FA06F5012C01D10C3004E0022C94
:101BE00001D1103000E014301AB107682F430760AC
:101BF00002E00768AF430760F0BD00002DE9F04741
:101C000086B005460E460024A24600BFA146002726
:101C1000B08900B100BF2F462C8A4CF6FF700440FB
:101C2000F08804432C82AC894EF6F3100440B0884F
:101C300031890843718908430443AC81AC8A4FF66B
:101C4000FF400440B0890443AC8201A8FFF786FC42
:101C50001F48874202D1DDF810A001E0DDF80CA09A
:101C6000A88900F4004040B10AEBCA0000EB0A105A
:101C700031684900B0FBF1F807E00AEBCA0000EB5D
:101C80000A1031688900B0FBF1F86420B8FBF0F06D
:101C900004012009642101FB1089A88900F4004097
:101CA00040B1322000EBC900B0FBF1F000F00700BA
:101CB000044308E0322000EB09106421B0FBF1F08E
:101CC00000F00F0004432C8106B0BDE8F08700004F
:101CD0000038014001468888C0F30800704700BF03
:101CE000FEE700000FB4084B10B504A902AA039840
:101CF00000F0DEF8044602A9002000F05CFC20465B
:101D000010BC5DF814FB0000B725000802E008C80D
:101D1000121F08C1002AFAD170477047002001E065
:101D200001C1121F002AFBD1704700002DE9FF5F9F
:101D300082B00021DDE90430020DDDF840B003433C
:101D400018D044F61050A2F2FF32424315141198F5
:101D500001281FD0A5EB0B00401C5FEA000A4FF0E2
:101D600000064E4FDFF83891B046504615D5CAF1FF
:101D7000000413E0119801244AA3012801D16FEA5D
:101D80000B010298119AC0E90031C0E9024206B085
:101D9000BDE8F09FCBF10000DFE704460021404A98
:101DA000491842EB0450CDE9001012E0E00707D0DB
:101DB00032463B4640464946FEF7B6FA80468946DB
:101DC00032463B4610461946FEF7AEFA06460F4627
:101DD0006410002CEAD1DDE90401DDE90023BAF149
:101DE000000F06DAFEF7A0FA42464B46FEF79CFAD1
:101DF00005E0FEF70BFB42464B46FEF707FB0446A9
:101E00000E460022284BFEF789FB03D84FF0FF3027
:101E1000014607E00022254B20463146FEF7DDF95A
:101E2000FEF763FB102409E0002C0ADB0A220023E2
:101E3000FEF7A2F9039B30321A55641E50EA0102E4
:101E4000F2D1641C039AC4F111031444119A012ABB
:101E500003D0012208430DD10AE0084304D000203A
:101E60004FF0110B119072E7A3EB0B056D1E0DE007
:101E70005B4504DD4FF0000205F1010504E003DAE3
:101E80004FF00002A5F10105002AECD0029811994B
:101E9000C0E90231C0E9004579E7000000001440C4
:101EA0000000F03F300000000000F0430000E03F81
:101EB0002DE9FF4F95B09A46884606460025EEE18B
:101EC000252877D100242746F94A0121039400E010
:101ED000044316F8013F203B01FA03F01042F7D10A
:101EE00030782A2811D06FF02F033078A0F130021B
:101EF000092A16D8039A44F0020402EB820203EB8B
:101F000042021044761C0390EFE758F8042B03922A
:101F1000002A03DA504244F40054039044F00204CF
:101F2000761C30782E2816D116F8010F44F00404E0
:101F30002A280DD06FF02F023078A0F13003092B42
:101F400009D807EB870302EB4303C718761CF3E7B6
:101F500058F8047B761C30786C280FD006DC4C28AF
:101F600017D068280DD06A2814D104E0742810D046
:101F70007A280FD10DE044F400140AE044F48014F0
:101F800001E044F440147278824202D104F58014D6
:101F9000761C761C307866280BD013DC582877D056
:101FA00009DC002875D04528F6D04628F4D047280B
:101FB0001AD193E118E0632835D0642879D06528D8
:101FC00012D18BE1702873D008DC6728F1D0692822
:101FD0006FD06E280DD06F2806D1ACE073282CD0BE
:101FE000752874D0782853D05246179990476D1CA5
:101FF00054E1C4F30250022809D003280DD0D8F8C8
:10200000001004280DD00D6008F1040846E1D8F84E
:102010000010EA17C1E90052F6E7D8F800100D8069
:10202000F2E70D70F0E718F8041B8DF8001000209F
:102030008DF80100EB46012003E058F804BB4FF097
:10204000FF3061074FF0000102D40DE009F10101FA
:102050008946B9420FDA8145F8DB1BF809100029DF
:10206000F4D108E009F1010189468142FADB1BF84D
:1020700009100029F6D103985346A0EB0907214621
:102080003846179A00F080FA284400EB090507E06B
:1020900044E008E10DE01BF8010B52461799904708
:1020A000B9F10109F7D2534621463846179AF2E0B2
:1020B00039E00A21C4F302524FF0000B0091022ACA
:1020C00006D058F8040BC117032A09D00AE023E010
:1020D00008F1070020F00702F2E80201904605E04F
:1020E00000B2C117042A01D140B2C117002906DA93
:1020F0000A460021404261EB02012D2202E0220546
:1021000004D52B228DF80420012203E0E20701D040
:102110002022F7E7914657E00A2100E010214FF016
:10212000000B00910BE010214FF0000B44F0040471
:102130000827009103E008204FF0000B0090C4F343
:102140000252022A05D058F8040B0021032A08D0B5
:1021500008E008F1070020F00702F2E802019046CB
:1021600003E080B2042A00D1C0B24FF00009220778
:102170002AD53278702A07D0DDF800C08CF0100C18
:102180005CEA0B0C05D00EE040228DF80420012201
:1021900008E050EA010306D030238DF804308DF8B2
:1021A000052002229146009B83F0080353EA0B03AB
:1021B0000AD150EA010201D1620705D530228DF81B
:1021C00004204FF001097F1E3278582A04D039A22A
:1021D0000C920CAA02920BE03BA2F9E75B46009A34
:1021E000FDF7CAFF0C9B9B5C029A521E0292137071
:1021F00050EA0102F2D1029804A9081A00F1200B5A
:10220000600702D524F4803400E001275F4502DD39
:10221000A7EB0B0000E0002000EB0B0100900398FF
:102220004944401A0390E00306D453462146179AC6
:10223000039800F0A9F90544002706E001A85246DA
:10224000C05D179990476D1C7F1C4F45F6DBE0037E
:102250000CD553462146179A039800F095F905448A
:1022600004E030205246179990476D1C0099481E93
:1022700000900029F5DC08E00298029952460078A7
:10228000491C0291179990476D1CBBF10001ABF1FD
:10229000010BF1DC5BE100F065F90544761C307858
:1022A00000287FF40DAE19B02846BDE8F08F00007D
:1022B000092801003031323334353637383961621C
:1022C00063646566000000003031323334353637E0
:1022D000383941424344454600000000600700D4BD
:1022E000062708F1070020F00700F0E802238046E7
:1022F00003F0004C5FEA0C0001D097A009E0200534
:1023000001D596A005E0E00701D095A001E0AFF26D
:102310004C001390307823F0004365280CD006DC85
:10232000452809D046281DD047287FD13BE06628A4
:1023300018D067287AD136E00021112F01DB112057
:1023400000E0781CCDE9000104A90CA8FFF7EEFC21
:10235000DDE90D010C9A4FF0000B07F10109109215
:1023600000914EE04FF000400097CDE9011004A924
:102370000CA8FFF7DBFCDDE90D020C9B0F994FF079
:10238000000B91461093009211B9791C00EB0109E2
:10239000B7EB090003D4C0F1FF3B07F10109A9EB3A
:1023A0000700019042E0012F00DA01270021112FE0
:1023B00001DD112000E03846CDE9000104A90CA898
:1023C000FFF7B4FCDDE90D010C9A00914FF0000B12
:1023D000B946109221070FD4009A4A4503DA914674
:1023E00001E0A9F10109B9F1010F05DD109AA9F188
:1023F0000101515C3029F4D0B84202DA10F1040F27
:1024000003DA0121CDE9011010E0002803DC834448
:10241000A9EB000102E0411C494500DD8946A0EB23
:102420000B00401C01904FF000400290200705D4A3
:102430000198484502DB4FF0FF30019000208DF8F5
:102440004B0002980DF14B07B0F1004F25D0022050
:102450000C902B200D90029800280CDA404202903C
:102460002D200D9007E00A210298FDF76FFE303114
:10247000029007F8011D0C99481E0C900029F2DC0F
:1024800002980028EFD1791E0D980870307800F07E
:10249000200040F0450007F8020D11A8C01BC01D28
:1024A00002901398007800B1012000EB0901019817
:1024B00001EBE071029801440398401A401E03901A
:1024C000E00306D453462146179A039800F05CF8BF
:1024D00005441398007818B15246179990476D1C1F
:1024E000E00323D553462146179A039800F04CF891
:1024F00005441BE0BBF1000F07DB0098584504DDE5
:102500001098179910F80B0001E0179930205246E7
:10251000904701980BF1010B401E05F10105019058
:1025200004D12E205246179990476D1CB9F1000135
:10253000A9F10109DEDC05E017F8010B52461799F5
:1025400090476D1C0299481E02900029F4DC534606
:102550002146179A03989EE62D0000002B000000EC
:10256000200000002DE9F041044600251E461746D4
:10257000880404D405E039462020B0476D1C641E51
:10258000F9D52846BDE8F0812DE9F0410446002543
:102590001E469046C80301D5302700E02027880456
:1025A00004D505E041463846B0476D1C641EF9D598
:1025B0002846BDE8F0810A68531C0B601070704714
:1025C00010B56FF00400FFF7ECF80A4800680A49FC
:1025D000B0FBF1F0094908700846007800EB4001B3
:1025E000C1EBC0104FF6FF7101EAC000044908803A
:1025F00010BD00000400002000127A001800002026
:102600001A0000200146114A12884A434FF0E02385
:102610005A6100229A611A46126942F001021A6157
:1026200000BF4FF0E022106900F001021AB100F47F
:102630008032002AF5D04FF0E022126922F0010228
:102640004FF0E0231A6100229A6170471A000020BF
:10265000FFF7B6FF4FF4614000F03EF9FEF750FB84
:10266000FEF7B2FC0820FFF7CDFFFEF717FC11E0E4
:102670004FF4C870FFF7C6FF2CA201210846FEF7F1
:1026800071FD4FF44870FFF7BDFF2CA201210846F1
:10269000FEF768FD2D48FEF72DFE0028E8D1FEF775
:1026A000FDFB2BA201210846FEF75CFD2AA20121B9
:1026B0000220FEF757FD2AA201210320FEF752FD5A
:1026C00029A201210420FEF74DFD2EE00020FEF797
:1026D00029FB2749087008460078012805D1002009
:1026E0000870FEF7DBFBFDF7D1FF214800780328D7
:1026F00006D100201E490870FEF7D0FBFEF760F9F6
:102700001B480078052810D1002019490870FEF7F1
:10271000C5FB18A201210846FEF724FD19A20121DC
:102720000220FEF71FFD00F031F8CFE7434F4E4E79
:10273000454354204641494C45440000434F4E4ECA
:10274000454354494E472020202000002800002007
:1027500054455354310000004B31204144440000A3
:102760004B332044454C00004B3520564552000069
:1027700000000020706C6561736520707265737372
:10278000000000004B31206261636B0010B586B021
:1027900050E00020FEF7C6FA36490870FEF78CFDBF
:1027A0000446002C46D10120FEF763FD0446002CB0
:1027B00040D105AB632200210120FEF7DBFD04467A
:1027C000002C22D1FEF76AFB2BA201210846FEF75E
:1027D000C9FC2CA201210220FEF7C4FC2BA201217E
:1027E0000320FEF7BFFCBDF81630BDF814202BA166
:1027F0006846FFF777FA6A4601210420FEF7B2FC2B
:1028000040F2DC50FFF7FEFE14E0FEF747FB1AA291
:1028100001210846FEF7A6FC1AA201210220FEF7BC
:10282000A1FC23A201210320FEF79CFC40F2DC5016
:10283000FFF7E8FE0F4800780128AAD1FEF72EFB2B
:102840001DA201210846FEF78DFC1DA201210220D8
:10285000FEF788FC1CA201210320FEF783FC1CA2CA
:1028600001210420FEF77EFC4FF4FA70FFF7CAFE48
:1028700006B010BD000000207072657373206167A0
:1028800061696E004B31206261636B0020205375DB
:102890006363656564656420200000002049443A54
:1028A00025642073636F72653A2564200000000080
:1028B0006661696C65640000544553540000000073
:1028C0004B312041444400004B332044454C000030
:1028D0004B3520564552000010B586B00446012104
:1028E0000820FEF71BFE01218804FEF7F7FD2A48A9
:1028F000FFF7E6F84FF48060ADF8100003208DF884
:10290000120018208DF8130004A92448FEF718F9C6
:102910004FF40060ADF8100004208DF8130004A9F6
:102920001E48FEF70DF900940020ADF80400ADF844
:102930000600ADF80800ADF80C000C20ADF80A0058
:1029400069461548FFF75AF901211348FFF7ACF81B
:10295000012240F225511048FFF72AF927208DF86F
:10296000140002208DF8150003208DF816000120B8
:102970008DF8170005A8FEF759FA41F61F416320AC
:10298000FEF76CFF00200649088000214FF08040D0
:10299000FEF795FF06B010BD00480040000C014056
:1029A00024000020000000000000000000000000E3
:1029B00000000000000000F80000000000000033EC
:1029C0003000000000100C06100C06000000000093
:1029D0000000000040C07840C0784000043F04047C
:1029E0003F040400007088FC08300000001820FF3D
:1029F000211E0000F008F000E018000000211C0378
:102A00001E211E0000F00888700000001E212324F3
:102A10001927211010160E00000000000000000011
:102A200000000000000000E01804020000000007A1
:102A30001820400000020418E000000000402018A8
:102A400007000000404080F0804040000202010F7B
:102A500001020200000000F0000000000101011F5F
:102A600001010100000000000000000080B07000C3
:102A70000000000000000000000000000001010153
:102A800001010101000000000000000000303000E2
:102A900000000000000000008060180400601806BC
:102AA0000100000000E010080810E000000F1020F6
:102AB00020100F00001010F8000000000020203F40
:102AC00020200000007008080888700000302824CA
:102AD000222130000030088888483000001820206B
:102AE00020110E000000C02010F800000007042490
:102AF000243F240000F808888808080000192120D5
:102B000020110E0000E0108888180000000F11202E
:102B100020110E0000380808C83808000000003FE7
:102B2000000000000070880808887000001C222146
:102B300021221C0000E010080810E00000003122F3
:102B400022110F00000000C0C00000000000003093
:102B500030000000000000800000000000008060E5
:102B60000000000000008040201008000001020466
:102B7000081020004040404040404000040404044D
:102B80000404040000081020408000000020100809
:102B900004020100007048080808F000000000303E
:102BA00036010000C030C828E810E00007182724CC
:102BB00023140B000000C038E0000000203C23027A
:102BC0000227382008F8888888700000203F2020DD
:102BD00020110E00C030080808083800071820200F
:102BE0002010080008F808080810E000203F202006
:102BF00020100F0008F88888E8081000203F2020E7
:102C00002320180008F88888E8081000203F2000DA
:102C100003000000C0300808083800000718202012
:102C2000221E020008F808000008F808203F2101D1
:102C300001213F20000808F8080800000020203F7C
:102C40002020000000000808F8080800C0808080EC
:102C50007F00000008F888C028180800203F2001E5
:102C60002638200008F8080000000000203F20203F
:102C70002020300008F8F800F8F80800203F003F56
:102C8000003F200008F830C00008F808203F20006E
:102C900007183F00E01008080810E0000F1020207F
:102CA00020100F0008F808080808F000203F210154
:102CB00001010000E01008080810E0000F182424AB
:102CC00038504F0008F8888888887000203F20001E
:102CD000030C3020007088080808380000382021D4
:102CE00021221C00180808F8080818000000203FDE
:102CF0002000000008F808000008F808001F202045
:102D000020201F000878880000C838080000073815
:102D10000E010000F80800F80008F800033C070066
:102D2000073C0300081868808068180820302C03CE
:102D3000032C30200838C800C83808000000203FA5
:102D40002000000010080808C83808002038262194
:102D500020201800000000FE020202000000007F98
:102D600040404000000C30C00000000000000001A6
:102D70000638C00000020202FE0000000040404091
:102D80007F000000000004020202040000000000B6
:102D90000000000000000000000000008080808033
:102DA000808080800002020400000000000000001B
:102DB00000000000000080808080000000192422B4
:102DC00022223F2008F8008080000000003F1120F0
:102DD00020110E000000008080800000000E1120F5
:102DE00020201100000000808088F800000E1120D3
:102DF00020103F200000808080800000001F2222E1
:102E000022221300008080F0888888180020203F4C
:102E1000202000000000808080808000006B94945F
:102E20009493600008F8008080800000203F21001B
:102E300000203F2000809898000000000020203FE4
:102E400020200000000000809898000000C08080D2
:102E5000807F000008F8000080808000203F24026E
:102E60002D302000000808F8000000000020203F5E
:102E7000202000008080808080808000203F200013
:102E80003F20003F8080008080800000203F2100A4
:102E900000203F200000808080800000001F202054
:102EA00020201F00808000808000000080FFA12083
:102EB00020110E000000008080808000000E112094
:102EC00020A0FF80808080008080800020203F2123
:102ED00020000100000080808080800000332424D6
:102EE00024241900008080E0808000000000001F82
:102EF000202000008080000000808000001F202033
:102F000020103F20808080000080808000010E30F3
:102F10000806010080800080008080800F300C0354
:102F20000C300F0000808000808080000020312E57
:102F30000E312000808080000080808080818E7033
:102F40001806010000808080808080000021302CE5
:102F50002221300000000000807C020200000000FE
:102F6000003F404000000000FF00000000000000A3
:102F7000FF0000000002027C800000000040403F93
:102F8000000000000006010102020404000000002D
:102F900000000000B42F00080000002048000000DE
:102FA0000C1D0008FC2F000848000020E807000066
:102FB0001C1D00080000000000A24A0400000000E0
:102FC00000000000010203040607080900000000D9
:102FD000000000000000010000000000FFFFFFFFF4
:102FE00000000000000000000000010203040102D4
:0C2FF0000304060708090204060800009C
:0400000508000105E9
:00000001FF
